:020000040800F2
:10000000F008002079020008952E00088D2E0008C7
:10001000912E000871040008A138000800000000BB
:100020000000000000000000000000009D2E0008FD
:100030008D04000800000000992E0008A12E000881
:10004000930200089302000893020008930200083C
:10005000930200089302000893020008930200082C
:100060009302000893020008930200087504000838
:10007000810400089302000893020008930200081C
:100080009302000800000000930200089302000899
:10009000930200089D0400089302000893020008E0
:1000A00093020008052F000893020008930200083D
:1000B00093020008930200089302000893020008CC
:1000C00093020008930200089302000893020008BC
:1000D0009302000895380008930200089302000874
:1000E000930200089302000893020008930200089C
:1000F0009302000893020008930200080000000029
:1001000000000000930200080000000093020008B5
:100110009302000800000000930200089302000808
:10012000930200089302000893020008930200085B
:100130009302000800000000000000009302000885
:100140009302000893020008000000000000000075
:10015000000000000000000000000000000000009F
:1001600000000000000000000000000093020008F2
:1001700093020008000000000000000000000000E2
:1001800000000000930200080000000000000000D2
:10019000000000000000000000000000000000005F
:1001A0000000000000000000930200089302000815
:1001B0009302000893020008930200080000000068
:1001C0000000000093020008000000000000000092
:1001D000930200089302000800F002F800F03CF8D7
:1001E0000AA090E8000C82448344AAF10107DA4592
:1001F00001D100F031F8AFF2090EBAE80F0013F0A8
:10020000010F18BFFB1A43F001031847943A00008E
:10021000B43A0000103A24BF78C878C1FAD852071F
:1002200024BF30C830C144BF04680C607047000070
:100230000023002400250026103A28BF78C1FBD8EF
:10024000520728BF30C148BF0B6070471FB503F08D
:10025000EAFC1FBD10B510BD00F0D0F81146FFF745
:10026000F5FF03F01FFB00F0EEF803B4FFF7F2FF19
:1002700003BC00F0F5F80000094880470948004732
:10028000FEE7FEE7FEE7FEE7FEE7FEE7FEE7FEE746
:10029000FEE7FEE704480549054A064B70470000A3
:1002A000F12E0008D9010008F0020020F00800201B
:1002B000F0040020F004002053EA020C00F06980F2
:1002C0002DE9F04B4FF00006002B1FBFB3FA83F56A
:1002D00003FA05F424FA05F65E4012BF1643B2FA9B
:1002E00082F502FA05F4C5F120051EBF22FA05FCCD
:1002F00044EA0C04203556EA044C4FEA144418BF73
:10030000641C4FF000084FF00009904271EB030CA1
:1003100039D3002919BFB1FA81F701FA07F6B0FA0B
:1003200080F700FA07F6C7F120071EBF20FA07FC86
:1003300046EA0C062037B6FBF4FCA7EB0507103F96
:1003400007F01F0BCBF120062CFA06F60CFA0BFB7C
:1003500044BFB3460026202FA4BF5E464FF0000BDB
:100360005BEA060C08BF4FF0010B19EB0B0948EBD9
:100370000608ABFB027C06FB02CC0BFB03CCC01BCC
:1003800071EB0C01C1E70B46024641464846BDE809
:10039000F08B13B5084318BF4FF0FF300146AFF3A1
:1003A0000080BDE81C4070474FF0000200B51346C6
:1003B00094469646203922BFA0E80C50A0E80C5085
:1003C000B1F12001BFF4F7AF090728BFA0E80C5036
:1003D00048BF0CC05DF804EB890028BF40F8042B2F
:1003E00008BF704748BF20F8022B11F0804F18BF9C
:1003F00000F8012B7047704770477047754600F052
:100400002BF8AE4605006946534620F007008546A6
:1004100018B020B5FFF73EFFBDE820404FF00006C2
:100420004FF000074FF000084FF0000BAC46ACE86F
:10043000C009ACE8C009ACE8C009ACE8C00921F0CB
:1004400007018D46704710B50446AFF30080204683
:10045000BDE81040FFF709BF0048704720000020AA
:1004600001491820ABBEFEE72600020070470000DD
:10047000FEE7000040F2E000C2F2000000F08AB89F
:1004800040F24010C2F2000000F084B87047000053
:10049000EFF3108072B600BFFEE7000040F2A0103C
:1004A000C2F2000000F032BB80B5014690F8250092
:1004B000022825D10868D1E910CE8A6C036823F0A0
:1004C0000E030360136823F480731360026822F044
:1004D000010202600EF01F00012202FA00F0CCF8C7
:1004E0000400D1E913205060486D68B1026822F41D
:1004F00080720260D1E916024260002005E000BF70
:100500000420C863012000E00020012281F825209A
:10051000002281F8242080BD80B590F825100229A2
:100520002ED10168D0E910CE826C0B6823F00E0347
:100530000B600B6823F001030B60116821F48071DC
:1005400011600EF01F02012101FA02F2CCF8042022
:10055000D0E913325A60426D32B1136823F48073CC
:100560001360D0E91623536080F82510826B0021B8
:1005700080F824100AB190470021084680BD00BFD2
:100580000421C1630121002280F8251080F8242075
:10059000084680BDB0B5D0E910C30268DCF8001091
:1005A00003F01F030424D2F800E09C400C4218BF63
:1005B0001EF0040522D102249C400C4218BF1EF0FC
:1005C000020529D1D940090724D51EF0080108BF2A
:1005D000B0BD116821F00E011160012101FA03F292
:1005E000CCF80420C16380F82510416B002280F80C
:1005F000242079B1BDE8B040084700BF11688906E2
:1006000003D4116821F004011160CCF80440016B9F
:100610000029EFD1B0BD00BF1168890606D411686A
:1006200021F00A011160012180F82510CCF8044066
:10063000C16A0022002980F82420DBD1EAE700000B
:1006400000284FF0010100F08E802DE9F04740F2C4
:10065000000CC4F2020C03684FF6F8320CF5816E00
:10066000CBF6FD72734538BF02F580624CF6CD447F
:100670001A44CCF6CC44A2FB042803F0FC02A2F1FD
:100680000802A2FB04290CF580656FF00304D0E991
:100690000262D0F810A03CBF0025C4F2020504EAB3
:1006A0009804C0E91054022580F825501D6847F6CB
:1006B000F07725EA07073A43476942EA0A02856963
:1006C0003A43C7692A43056A3A432A4332431A60C8
:1006D0000CF50262734538BF0CF50062A3180CF5E7
:1006E0000862C264C9F3041240F6840C01FA02F2F3
:1006F000B6F5804FC4F2020C8364026506D1002176
:1007000041601960CCF800201EE000BF41685FFA2C
:1007100081FE013903294FF00001C3F800E0CCF855
:10072000002011D8AEF101020CEB820747F87C1FC4
:1007300002F01F01012202FA01F30CF1BC0239465A
:10074000CCF8C03002E000BF0022002300F1540CBE
:100750008CE80E0000210122C16380F8252080F87A
:100760002410BDE8F04708467047000010B590F827
:100770005C30013B012B69D8006811F0070ED0F8FE
:1007800058C00CF0010300D01BB311F0380F02D099
:100790001CF002041DD011F4E07F02D01CF0040410
:1007A00017D011F4F05F02D01CF0080411D011F43E
:1007B000604F02D01CF010040BD011F4403F02D067
:1007C0001CF0200405D011F47C0F06D01CF040046E
:1007D00003D1C46D44F00104C465BEF1000F18BF1D
:1007E000002B3BD111F0380F18BF1CF0020335D19C
:1007F00011F4E07F18BF1CF004032FD111F4F05F57
:1008000018BF1CF0080329D111F4604F18BF1CF069
:10081000100323D111F4403F18BF1CF020031DD159
:1008200011F47C0F18BF1CF0400317D10B061BD42A
:10083000CB0504D5D0F8E0301A43C0F8E02000F131
:100840005402002013681943116010BD00F16002CA
:100850000120022113681943116010BDC36D43F0DC
:100860000203C3650B06E3D5D0F8DC301343C0F8B0
:10087000DC30CB05E3D5DDE72DE9F04190F85C30C5
:10088000022B15D10668D6F8C4309B0218D4D6F8CE
:10089000C430D1E90075D1F808E00C69C3F3014C0C
:1008A000B5B144EA070343EA0E0343F0804E13E078
:1008B000016E41F0080101660120BDE8F08100BF32
:1008C000016E41F4007101660120BDE8F08100BFB6
:1008D00044EA87434EEA030ED1E90757D1E905847C
:1008E00045EA0765CB682C43456D44EA08040CEBE8
:1008F000CC0744EA034405EBC70345F837E05C60E6
:10090000CF6887B143F67045083303320024C0F640
:10091000000500BF171957F8037C1F51CF68043436
:10092000EF5DBC42F6D3012101FA0CF1C6F8CC1000
:1009300081650020BDE8F08180B590F85C20013A27
:10094000012A13D80A68BAB101F1040ED1E90431C1
:100950009EE80450406C43EA4E7E41EA8C7100EB05
:10096000C20340F832E00020596080BD016E41F0C2
:1009700002010166012080BDD1E90323D1E901CE46
:10098000D206496942EA8E7242EA0342006C114380
:1009900040F82C10002080BD704700007047000018
:1009A0002DE9F04390F85C70022F1BD1D0F800C005
:1009B00040291FD1DCF890703F0700F09D80DCF8E3
:1009C0009070FF0146BFDCF88070C7F34027002716
:1009D000DCF89060C6F3012606EB070C00F148072F
:1009E0001DE000BF016E41F0080101660120BDE875
:1009F000F08300BFDCF898703F077DD0DCF898707A
:100A0000FF0146BFDCF88070C7F300270027DCF841
:100A10009860C6F3012606EB070C00F14C073F680F
:100A20000CEBCC0657F8365007EBC60E15F0804598
:100A3000556057F8365025F0604408BFC5F38A4426
:100A4000146057F8365005F00055956057F8364059
:100A500004F000441461BEF80440D461BEF80640BE
:100A600014F00F04D460DEF8044004F480145461E0
:100A7000DEF8044004F4001494619EF8074004F08A
:100A80007F041462DEF804404FEAD474546228D024
:100A900043F670480024C0F6000800BF0EEB0406C1
:100AA000377A651C1F55D76818F80770BD4218D2F1
:100AB000757A1F197D70D56818F80590A51C4D45ED
:100AC0000FD2B57ABD70D56818F80590E51C4D4574
:100AD00007D2F57A0434FD70D56818F80550AC4299
:100AE000DCD3006840290CBFC0F894C0C0F89CC09B
:100AF0000020BDE8F08300BF016E41F48071016603
:100B00000120BDE8F0830000704700002DE9F04FA0
:100B100085B004460068016D426DD0F850B0456D57
:100B2000076D466D036D01EA02080493436D03935C
:100B3000036D0293436D0193D0F854A0D0F8509008
:100B40005FEA496307D51AF0400104D040210165EE
:100B50002046FFF7D9FF0BEA050B5FEAC95008F4FE
:100B6000E0550ED51AF480700BD02068D0F8D8105C
:100B7000D0F8E02011404FF480720265204600F06A
:100B800035FA37400BF007062DB120682946056578
:100B9000204600F02FFA07F038052EB120683146C4
:100BA0000665204600F0E4F92DB120682946056568
:100BB000204600F0FFF95FEA895009D51AF4007069
:100BC00006D020684FF400710165204600F014FA49
:100BD0005FEA09600DD51AF080000AD02068D0F8CD
:100BE000D410D0F8DC20114080220265204600F0AD
:100BF000FFF95FEA894009D51AF4005006D0206851
:100C00004FF400510165204600F0EEF95FEA09401B
:100C1000DDE9011000EA010509D51AF4004006D00B
:100C200020684FF400410165204600F0DBF9DDE962
:100C3000031008405FEA494105F460210AD51AF41F
:100C4000804207D022684FF480431365226E42F041
:100C50008002226600F4710521B1206801652046FA
:100C6000FFF79CFE25B120680565206E28432066AD
:100C7000206E28B1204605B0BDE8F04FFFF78CBECE
:100C800005B0BDE8F08F000070B5D8B1044690F80B
:100C90005C0028B9002084F85D00204600F018F9B7
:100CA0002068816921F01001816100F08BFA05460E
:100CB00020688169090707D500F084FA401B0B28DA
:100CC000F6D312E0012070BD816941F0010181611C
:100CD00000F078FA054600BF21688869C0070DD189
:100CE00000F070FA401B0B28F6D3206E032140F071
:100CF00001002066012084F85C1070BD4AF20040BB
:100D00008A69C4F20000A0F5804342F002029942D1
:100D10008A6105D162684CF20013CFF6FF73C250AE
:100D2000227C8B69012A23F0400318BF40338B617A
:100D3000627C8B69012A23F4804308BF03F580435A
:100D40008B61A27C8B69012A23F4805318BF03F5C1
:100D500080538B618A69D4E902E322F4407545EA45
:100D60000E058D618D6925F0A4058D610D6925F055
:100D700010050D61A3B1012B0ED0022B09D08D6996
:100D8000032B45F080058D610D6945F010050D615F
:100D900006D1202301E000BF04238D692B438B6122
:100DA000D4E90535D4E907266FF0FF0C013D0CEBC3
:100DB000022242EA4562751E2A430025CFF6FF75DE
:100DC00005EB03431A43BEF5407FCA6110D1D4E955
:100DD00009E3D4E90B62013B0CEB062633436FF0C9
:100DE0000F0606EB02121A4305EB0E431A43CA60C4
:100DF00004F134064CCED1F8C0502E43C1F8C06087
:100E00002064D1F880604AF2704526F4F816C4F2E6
:100E1000000546EA0242C1F880206564D1F88020CE
:100E200022F0706242EA0362C1F8802005F14001BD
:100E3000A16405F58C71E16405F5F871216505F58E
:100E400002716165002105F5037200BFC0E9001160
:100E5000C0E90211C0E90411C0E90611C0E9081196
:100E6000C0E90A11C0E90C11C0E90E11C0E9101166
:100E7000C0E91211C0E91411C0E91611C0E9181136
:100E8000C0E91A11C0E91C11C0E91E11C0E9201106
:100E9000C0E92211C0E92411C0E92611C0E92811D6
:100EA000C0E92A11C0E92C11C0E92E11C0E93011A6
:100EB000C0E93211C0F8D010904200F1D400C5D37F
:100EC00000200121A065206684F85C1070BD000040
:100ED00010B596B00446684604304021FFF764FA26
:100EE000206846F20041C4F20001884202D016B0E8
:100EF00010BD00BF4FF4805000904FF080700C90F8
:100F0000684600F0B1FA002818BFFFF7C1FA41F2B5
:100F10004C00C4F20200C16841F00071C160C168B8
:100F200001F0007111911199016841F00201016015
:100F30000068012100F00200119011984FF44070F8
:100F4000119002201290CDE913100920159040F263
:100F50000040C4F6000011A900F050F8152002214D
:100F6000002200F0A7F9152000F090F916B010BD8E
:100F700010B5C90700D110BD40F28003C2F20003D2
:100F800003F1380240210446FFF70AFD20B1EFF3D8
:100F9000108072B6FEE700BF204601210022FFF755
:100FA000E5FB002808BF10BDEFF3108072B600BF4C
:100FB000FEE700007047000090F85C1001290BD19B
:100FC000022180F85C1001688A6922F001028A61BE
:100FD0000021016608467047016E41F00401016678
:100FE0000120704770470000704700007047000004
:100FF0007047000070470000704700002DE9F04F77
:1010000082B00D68002D00F0CB8041F2004400F169
:101010003847C4F6000406224FEAB726A04208BFAC
:101020000522052E38BF4FEAB722002401274FF0D2
:10103000000E0026009209E00D68013635FA06F22E
:101040000EF1040E04F1020400F0AA8007FA06FB78
:1010500015EA0B08F0D0D1F804A003220AF0030C23
:10106000ACF10105A240012D6FEA020910D8826897
:10107000CD6802EA0902A5402A4382604268CAF3A9
:10108000001522EA0B02B5402A43426006E000BF89
:10109000BCF1030F02D14FF0030C21E0C2688D6850
:1010A00002EA0902A5402A43BCF1020FC26017D12F
:1010B0006FF0030202EA560202440EF01C030F25F1
:1010C000D2F820C005FA03FA0D692CEA0A0C05FAD9
:1010D00003F343EA0C031362D1F804A00AF0030CF3
:1010E00002680CFA04F302EA09021A431AF4403FB8
:1010F0000260A1D041F26003C4F202031A6840F218
:10110000004942F001021A601A68C4F2010902F0B3
:1011100001020192019A26F003024FF6084A4A445E
:10112000CFF6FF7A52F80AC00EF00C050F23009F8D
:10113000AB402CEA030307FA05F52B4342F80A30CB
:10114000D9F808C04B684CEA0805DA0258BF2CEA07
:10115000080540F20C4CC9F80850C4F2010CDCF848
:1011600000209F0242EA080558BF22EA0805CCF891
:101170000050D9F804209D0342EA080758BF22EA2C
:101180000807C9F80470D9F80020DB0342EA080711
:1011900058BF22EA0807C9F8007001274CE700BFD2
:1011A00002B0BDE8F08F0000426902EA01039143FA
:1011B00041EA0341816170471823002A08BF2823B0
:1011C000C150704740F2E820C2F20000006870474A
:1011D00040F2000040F2E821C2F20000C2F2000139
:1011E00040680A68104408607047000080B503201A
:1011F00000F08CF8002000F009F800281CBF012046
:1012000080BD00F029F8002080BD000070B540F2DC
:101210000006C2F200067168E1B1044640F208001F
:10122000C2F200004FF47A720068B2FBF1F1B0FB39
:10123000F1F000F09BFE0F2C4FF0010508D838B9F3
:101240004FF0FF3021460022002500F033F83460D3
:10125000284670BD012070BD82B041F25800C4F232
:101260000200816841F001018160816801F00101A3
:1012700001910199016841F080510160006800F01E
:1012800080500090009802B000F0E4B8002848BFF9
:101290007047C1B200F01F00012202FA00F04EF2C6
:1012A0000012CEF2000242EAD10121F003010860EF
:1012B0007047000010B54EF60C5CCEF2000CDCF866
:1012C0000030C3F3022E8EF00704042C28BF042440
:1012D000BEF103034FF0FF3E0EFA04F438BF0023C3
:1012E000A14399400EFA03F39A43114300F00F0211
:1012F00000F160430901043A03F5644362440028A5
:1013000048BF02F10C03197010BD00004EF60C51DD
:10131000CEF200010A684FF6FF031A4060F30A227A
:1013200042F0806040F0FD7008607047B0F5007FCB
:1013300042D0002840F0808047F21400C4F2000040
:1013400050F8141CC26E01F4C06122F48072B1F531
:10135000806FC2662ED150F8141C012262F34A211C
:1013600040F8141C40F20801C2F200010968322260
:1013700051434DF68362C4F21B32A1FB0212910C61
:101380000268520511D54A1C0FD0026852050CD5CF
:1013900059B10268520508D5012906D002685205E4
:1013A00003D50229A1F10401EAD10068400544BF38
:1013B000032070470020704747F21400C4F2000079
:1013C00050F8141CC26E01F4C06142F48072B1F591
:1013D000806FC266EED150F8141C012262F34A21DC
:1013E00040F8141C40F20801C2F2000109683222E0
:1013F00051434DF68362C4F21B32A1FB0212910CE1
:101400000268520511D54A1C0FD0026852050CD54E
:1014100059B10268520508D5012906D00268520563
:1014200003D50229A1F10401EAD10068400544BFB7
:1014300003207047BEE700BF47F21400C4F200006B
:1014400050F8141C022262F34A2140F8141C0020B8
:101450007047000047F20800C4F20000016841F440
:1014600080410160704700002DE9F04182B00446E0
:10147000807841F288060007C4F2020602D40020F8
:101480002FE000BF56F8300C10F080580BD156F802
:10149000300C40F0805046F8300C56F8300C00F01C
:1014A00080500190019847F20007C4F200073868A5
:1014B00040F480703860FFF785FE05463868C00547
:1014C00000F1D680FFF77EFE401B0228F6D90320EC
:1014D000B8F1000F05D156F8301C21F0805146F8C4
:1014E000301C2168CA0713D18A0719D44A071FD4B0
:1014F0000A0725D48A062BD44A0631D40A0637D4E3
:10150000CA053DD48A0543D44A0549D457E000BFF3
:101510003268636822F003021A4332608A07E5D515
:101520003268A36822F00C021A4332604A07DFD502
:101530003268E36822F030021A4332600A07D9D5D4
:101540003268236922F0C0021A4332608A06D3D57A
:101550003268636922F440621A4332604A06CDD58C
:101560003268A36922F440521A4332600A06C7D592
:101570003268E36922F440421A433260CA05C1D599
:101580003268236A22F440321A4332608A05BBD59E
:101590003268636A22F440221A4332604A050ED54B
:1015A0003268A36A22F440121A43B3F5801F3260F6
:1015B00005D156F87C2C42F4801246F87C2C0A05A2
:1015C0000ED53268E36A22F440021A43B3F5800F65
:1015D000326005D156F87C2C42F4801246F87C2CFF
:1015E000CA040ED53268236B22F040721A43B3F15D
:1015F000807F326005D156F87C2C42F4801246F888
:101600007C2C8A040ED53268636B22F040621A4348
:10161000B3F1006F326005D156F87C2C42F4801291
:1016200046F87C2C4A040ED53268A36B22F0406247
:101630001A43B3F1006F326005D156F87C2C42F4A6
:10164000801246F87C2C09040ED53168E26B21F03B
:1016500040511143B2F1805F316005D156F87C1CD6
:1016600041F4803146F87C1C02B0BDE8F08100BF37
:10167000B06810F4407010D0216C88420BD0B06874
:10168000B16820F4407041F48031B160B16821F458
:101690008031B160B060C0070CD1B068216C20F41B
:1016A00040700843B0600020B8F1000F7FF419AF1C
:1016B00011E700BFFFF786FD054641F2883700BFFE
:1016C000B0688007E9D4FFF77DFD401BB842F7D929
:1016D000FDE600002DE9F04700286DD042F2000A37
:1016E000C4F2020A0446DAF800000D4600F00F00CA
:1016F00088420CD2DAF8000020F00F002843CAF824
:101700000000DAF8000000F00F00A84254D1216870
:1017100041F20808C807C4F2020803D1880740F163
:10172000D880BDE0606802283AD0032840D158F83C
:10173000082C920140D5D8F80420D8F8043042F2A1
:101740000046C3F3031302F00302D8F80470013318
:10175000C0F2F406032A04BF41F20026C0F27A0662
:10176000B6FBF3F2D8F80430C7F306277A43C3F385
:101770004163022707EB4303B2FBF3F24BF2004352
:10178000C0F2C4439A4261D9D8F8002012F0F00F99
:1017900051D089075AD5A168002957D14BE000BF25
:1017A00058F8081C89035CBF0120BDE8F08707E0FA
:1017B00058F8081C490503D40120BDE8F08700BF94
:1017C000D8F8001001F00C0104293FD0D8F800101F
:1017D00001F00C01082939D0D8F8001001F00C01F3
:1017E0000C2933D1D8F80410D8F8042042F200476D
:1017F000C2F3031201F00301D8F804300132C0F241
:10180000F407032904BF41F20027C0F27A07B7FBAF
:10181000F2F1D8F80420C3F306235943C2F341621E
:10182000022303EB4202B1FBF2F14BF20042C0F2A1
:10183000C44291420AD9D8F80010082262F3071175
:101840004FF00109C8F8001002E000BF4FF0000996
:10185000D8F8001021F003010843C8F80000FFF792
:10186000B1FC064641F28837D8F80000616800F004
:101870000C00B0EB810F07D0FFF7A4FC801BB8422F
:10188000F2D90320BDE8F0872168880708D4B9F1B0
:10189000000F1ED0D8F8000020F0F00017E000BFC5
:1018A000480705D5D8F8000040F4E060C8F800000B
:1018B000080706D5D8F80000072262F30D20C8F803
:1018C0000000D8F80000A26820F0F0001043C8F82B
:1018D0000000DAF8000000F00F00A8421BD9DAF887
:1018E000000020F00F002843CAF80000FFF76AFC50
:1018F000064641F2883700BFDAF8000000F00F001A
:10190000A84207D0FFF75EFC801BB842F4D9032041
:10191000BDE8F0872168480707D5D8F80000E268DD
:1019200020F4E0601043C8F80000080708D5D8F894
:101930000000216920F4605040EAC100C8F80000AE
:10194000D8F8000042F20041C0F2F40100F00C00AF
:10195000042808462DD0D8F8000000F00C00082814
:1019600041F20020C0F27A0023D0D8F8002002F023
:101970000C020C2A1CD1D8F80420D8F8043002F04C
:101980000302C3F30313D8F804700133032A08BF1A
:101990000146B1FBF3F0D8F80410C7F30627C1F3F2
:1019A00041610222784302EB4101B0FBF1F000E01B
:1019B0000020D8F8001043F64042C1F30311C0F6EE
:1019C0000002515C40F2080201F01F0120FA01F10F
:1019D00040F20000C2F200000068C2F20002116092
:1019E000BDE8F047FFF712BC40F2080041F20801E1
:1019F000C2F20000C4F202010068096843F65042D6
:101A0000C1F30221C0F60002515C01F01F01C84081
:101A10007047000040F2080041F20801C2F20000E5
:101A2000C4F202010068096843F65042C1F3C221C2
:101A3000C0F60002515C01F01F01C8407047000071
:101A400080B541F20C01C4F2020151F8040C42F2DB
:101A50000042C0F2F40200F00C000428104608BF57
:101A600080BD51F8040C00F00C00082841F2002061
:101A7000C0F27A0022D051F8043C03F00C030C2B86
:101A80001CBF002080BDD1F800C00B680CF0030C17
:101A9000C3F3031E0B680EF1010EBCF1030F08BF68
:101AA00002460968B2FBFEF0C3F30623C1F34161AD
:101AB0000222584302EB4101B0FBF1F080BD00006F
:101AC0002DE9F04182B0002800F00681044600783C
:101AD00041F20006C007C4F2020655D12078800703
:101AE00074D42078000700F197802078400700F137
:101AF000B7802078800600F10781E569002D00F0AD
:101B00003082B06800F00C000C2840F05981012DA3
:101B100000F0E280F068216A00F003028A4240F09F
:101B2000DB80626A6FF00F0300F0F00103EB02123A
:101B3000914240F0D180A16A00F4FE42B2EB012F45
:101B400040F0CA80E16A00F07842B2EBC16F40F029
:101B5000C380226B0023CFF6E07303EA025200F445
:101B6000C001A2F50012914240F0B680616B4FF0C7
:101B70007E4202EA016100F0C06001F17E418842CC
:101B800040F0AA80EDE100BFB06800F00C01F06801
:101B900008295BD0032281F00C0122EA00000844EE
:101BA000B0FA80F0400951D16068B0F5803F07D0AD
:101BB000B0F5A02F40F0DA80306840F4802030602B
:101BC000306840F480303060DBE000BFB068F1681E
:101BD00000F00C00042869D001F0030180F00C0033
:101BE00081F002010844B0FA80F040095ED1E1685A
:101BF0003068002900F0D28040F480703060FFF738
:101C0000E1FA05463068400500F1FC80FFF7DAFA9A
:101C1000401B0228F6D92EE16169D6F8940000290C
:101C200000F0908040F00100C6F89400FFF7CAFA77
:101C3000054600BFD6F8940080073FF556AFFFF782
:101C4000C1FA401B0228F5D915E100BF30688003B6
:101C50007FF544AF606800287FF440AF3CE000BFF0
:101C6000B06D10F0805808D1B06D40F08050B06574
:101C7000B06D00F080500190019847F20007C4F267
:101C800000073868C0052BD4386840F4807038608D
:101C9000FFF798FA054600BF3868C00520D4FFF763
:101CA00091FA401B0228F7D9E5E000BF30684005F3
:101CB00001D5E06880B17068216920F0FE4040EAFB
:101CC0000160706040F20000C2F200000068FFF79F
:101CD0009DFA00283FF405AF012002B0BDE8F08175
:101CE000A068012808D0052840F0AA80D6F8900006
:101CF00040F00400C6F89000D6F8900040F00100D3
:101D0000C6F89000A9E000BFA169D6F898000029A4
:101D100000F0808040F00100C6F89800FFF752FA0A
:101D2000054600BFD6F8980080073FF5E6AEFFF7FE
:101D300049FA401B02284FF00300F3D902B0BDE876
:101D4000F08100BF20F00100C6F89400FFF73AFAD6
:101D5000054600BFD6F8940080077FF5C6AEFFF7B2
:101D600031FA401B0228F5D985E000BF3168002810
:101D700021F480313160316821F48021316000F03C
:101D80007F80FFF71FFA0546306880033FF5A6AE57
:101D9000FFF718FA401B6428F6D96CE020F4807035
:101DA0003060FFF70FFA0546306840057FF599AEC1
:101DB000FFF708FA401B02284FF00300F4D9BDE7F3
:101DC000306820F080703060FFF7FCF9022D054686
:101DD0000CD100BF3068800140F17E80FFF7F2F93E
:101DE000401B02284FF00300F4D9A7E730688001B8
:101DF00040F1B080FFF7E6F9401B02284FF00300E6
:101E0000F4D99BE77068216920F0FE4040EA016048
:101E1000706066E620F00100C6F89800FFF7D2F97E
:101E2000054600BFD6F8980080077FF566AEFFF73D
:101E3000C9F9401B02284FF00300F3D97EE700BF29
:101E4000D6F8901021F00101C6F89010D6F8901045
:101E500021F00401C6F8901010B3FFF7B3F905465E
:101E600041F28837D6F8900080072BD4FFF7AAF903
:101E7000401BB842F6D9032002B0BDE8F08100BF94
:101E8000FFF7A0F9054600BF306880037FF526AE56
:101E9000FFF798F9401B64284FF00300F4D94DE791
:101EA000FFF790F9054641F2883700BFD6F8900059
:101EB000800707D5FFF786F9401BB8424FF00300B3
:101EC000F4D93BE7B8F1000F7FF413AEB06D20F00A
:101ED0008050B0650DE600BFF06848F20C01C0F21A
:101EE0009F1104F1200700EA010C8ECF6FF00F0064
:101EF000D4E90C5400EB02100022CFF6E07241EA64
:101F00000C0102EA05520843A2F500124FF07E458B
:101F100040EA032005EA0465104305F17E4540EAE6
:101F2000C7602843F060306840F080703060F0682F
:101F300040F08070F060FFF745F90446306880019A
:101F40000FD4FFF73FF9001B02284FF00300F5D92B
:101F5000F4E600BFF0684FF6FC71CFF6EE61084082
:101F6000F060002002B0BDE8F0810000411E0020BA
:101F7000B0EB116F1CBF012070474EF21002CEF281
:101F8000000251604EF62351CEF20001F0230B7097
:101F90000721906011607047704700007047000093
:101FA0007047000070470000704700007047000055
:101FB00070B590F83C20012A4FF0020247D080F81B
:101FC0003D20026843F2004C54689368C4F2010C4F
:101FD00042F6004E6245C4F2010E01D0724503D1B3
:101FE0004D6824F470042C434FF68F75CFF6FF55DF
:101FF0000E682C4042F6FF35C4F201053443AA4274
:1020000054600FDCB2F1804F16D040F20046C4F2AB
:102010000006B24210D040F60006C4F20006B242FA
:102020000AD00EE0724507D044F20006C4F2010661
:10203000B24201D0624504D1896823F0800319437C
:1020400091600121002280F83D1080F83C2010466C
:1020500070BD000070470000002804BF01207047D9
:1020600010B5044690F83D0028B9002084F83C00E3
:10207000204600F023F8022084F83D002068211D4E
:1020800000F058FF012084F8480084F83E0084F8EE
:102090003F0084F8400084F8410084F8420084F84E
:1020A000430084F8440084F8450084F8460084F82E
:1020B000470084F83D00002010BD000080B582B0CC
:1020C000006842F60041C4F2010188421CBF02B020
:1020D00080BD41F26000C4F202000168002241F4B8
:1020E000006101600068012100F400600190019826
:1020F0001920FFF7DFF8192002B0BDE88040FFF794
:10210000C5B8000090F83D1001291CBF01207047A0
:10211000022180F83D10016842F6FF30C4F2010050
:1021200081420FDCB1F1804F1ED040F20040C4F27A
:102130000000814218D040F60000C4F20000814245
:1021400012D01EE042F60040C4F2010081420BD0E2
:1021500044F20000C4F20100814205D043F2004085
:10216000C4F2010081420CD188680722C0F201024A
:102170000240062A4FF0000008D0B2F5803F08BFA9
:102180007047086840F001000860002070470000B8
:1021900080B590F83C20012A4FF0020200F0A9809F
:1021A00080F83D20D0F800C08822DCF80830CFF657
:1021B000CE721A40CCF808200B686F2B10DD1F225E
:1021C000C0F21002934237DCB3F5005F46DA702BA1
:1021D00000F09280B3F5805F00F08480D6E000BF0D
:1021E0002F2B35DD4F2B3FDC302B6FD0402B40F0B9
:1021F000CD80D1F804E0C968DCF82030DCF820207C
:1022000022F00102CCF82020DCF8182022F0F002A5
:1022100042EA011123F00A0242EA0E02CCF8181039
:10222000CCF82020DCF808104FF68872CFF6CF7279
:102230001140473154E000BF3F21C0F210018B42F2
:102240003ADC2021C0F210018B423FD0302139E02E
:10225000E3B3102B3AD0202B38D097E060D0B3F105
:10226000101F33D092E000BF502B6DD0602B40F098
:102270008D80D1F804E0C968DCF82030DCF820203B
:1022800022F01002CCF82020DCF8182022F4704252
:1022900042EA013123F0A00242EA0E12CCF81810F3
:1022A000CCF82020DCF808104FF68872CFF6CF72F9
:1022B0001140673114E000BF4021C0F210018B4291
:1022C00004D07021C0F210018B425FD1DCF80810FD
:1022D0004FF68872CFF6CF721140194341F00701D3
:1022E000CCF808100022012180F83D10002180F870
:1022F0003C10104680BD00BFD1E901E3C968DCF89D
:10230000082043EA0E0322F47F4243EA01211143ED
:10231000CCF80810DCF8081041F07701E0E700BFC6
:10232000D1E901E3C968DCF8082043EA0E0322F48E
:102330007F4243EA01211143CCF80810DCF8081071
:1023400041F48041CCE700BFD1F804E0C968DCF873
:102350002030DCF8202022F00102CCF82020DCF82C
:10236000182022F0F00242EA011123F00A0242EAA8
:102370000E02CCF81810CCF82020DCF808104FF62C
:102380008872CFF6CF7211405731A9E70122AAE730
:1023900070470000F0B581B004460068C568066962
:1023A000B10717D515F0020114D06FF002010161D9
:1023B000012121778069800704D02046FFF7E8FFDC
:1023C00006E000BF204600F0CBF8204600F0CAF837
:1023D00000202077700719D515F0040016D020686A
:1023E0006FF00401016102212177806910F4407FC0
:1023F00004D02046FFF7CCFF06E000BF204600F0E7
:10240000AFF8204600F0AEF800202077300717D54F
:1024100015F0080014D020686FF008010161042154
:102420002177C069800703D02046FFF7B1FF05E0A0
:10243000204600F095F8204600F094F80020207720
:10244000F00619D515F0100016D020686FF01001B5
:10245000016108212177C06910F4407F04D0204633
:10246000FFF796FF06E000BF204600F079F820460F
:1024700000F078F800202077F00718BF15F0010071
:1024800006D020686FF001010161204600F06CF871
:1024900016F4025F05F0800718BF002F02D1F00587
:1024A00009D410E020686FF4025101612046FFF763
:1024B00075FDF00507D537B120686FF480710161B3
:1024C0002046FFF769FD700609D515F0400006D0DB
:1024D00020686FF040010161204600F047F8B00627
:1024E00009D515F0200006D020686FF020010161A9
:1024F0002046FFF755FDF00209D515F4801006D0EF
:1025000020686FF4801101612046FFF74DFDB00295
:1025100009D515F4001006D020686FF40011016190
:102520002046FFF73FFD700209D515F4800006D064
:1025300020686FF4800101612046FFF737FD30020B
:102540000CD515F4000009D021686FF40002204674
:102550000A6101B0BDE8F040FFF77CBD01B0F0BDFD
:10256000704700007047000070470000704700008F
:1025700090F88410012904BF022070472421C0F87C
:10258000881002681168136823F00103136021F0BA
:1025900000530021416613602022C0F8882080F893
:1025A0008410084670470000704700007047000024
:1025B000B0B590F88420012A04BF0220B0BD2422C7
:1025C000C0F888200268D0F864E0D2F800C0136830
:1025D000BEF1000F23F001031360936823F06063E2
:1025E00041EA0301916019D09368916843F6904ED7
:1025F000490FC0F6000E43F698451EF80140C0F69C
:102600000005695CC3F34263E400B4FBF1F11EF81A
:102610000340EB5CE500B5FBF3F301E0012101238E
:10262000A0F86A102021A0F86830C2F800C0C0F8F5
:102630008810002180F884100846B0BDB0B590F82D
:102640008420012A04BF0220B0BD2422C0F88820C3
:102650000268D0F864E0D2F800C01368BEF1000F41
:1026600023F001031360936823F0604341EA030100
:10267000916019D09368916843F6904E490FC0F667
:10268000000E43F698451EF80140C0F60005695C4F
:10269000C3F34263E400B4FBF1F11EF80340EB5CCA
:1026A000E500B5FBF3F301E001210123A0F86A1076
:1026B0002021A0F86830C2F800C0C0F888100021BE
:1026C00080F884100846B0BD7047000070470000D5
:1026D0007047000070B5016840F62F03CA690446D0
:1026E00008688E681340202B0CD100F0200306F000
:1026F00080555B1917D0616F00297BD02046BDE85B
:102700007040084740F60F031A420CD00123C1F273
:10271000000306EA030C40F22013C0F2004303401A
:1027200013EB0C0368D1E36E012B05D112F01003FB
:1027300018BF10F010034DD1D3020BD516F480034F
:1027400008D04FF4801220460A62BDE87040FFF7BF
:10275000BDBF00BF110606D500F0800106F40003DE
:10276000C91840F03582510640F10E8110F0400149
:1027700000F00A81206850E8000F216820F0400036
:1027800041E80002DAB1206850E8000F216820F02B
:10279000400041E8000292B1206850E8000F216833
:1027A00020F0400041E800024AB1206850E8000FE4
:1027B000216820F0400041E80002002ADAD1202000
:1027C0000021C4F888002046A167BDE8704000F0F1
:1027D0005BBB00BF102008628868400618D4B4F8BC
:1027E0005C00B4F85E10B4F85E20002A18BF88427E
:1027F00040F0068270BD00BFD30718BF10F480738D
:1028000040F0CE80930706F0010E00F1D580DEE0A7
:10281000D4F88000006841688AB2002AEAD0B4F88F
:102820005C309A42E6D2A4F85E100068800600F19F
:102830009E80206850E8000F216820F4807041E8F5
:102840000002DAB1206850E8000F216820F480709F
:1028500041E8000292B1206850E8000F216820F49E
:10286000807041E800024AB1206850E8000F2168FA
:1028700020F4807041E80002002ADAD1206850E894
:10288000020F216820F0010041E80202BAB320687B
:1028900050E8020F216820F0010041E8020272B303
:1028A000206850E8020F216820F0010041E8020290
:1028B0002AB3206850E8020F216820F0010041E8A7
:1028C0000202002ADAD11AE0206850E8020F2168DB
:1028D00020F0400041E80202DAB1206850E8020F1F
:1028E000216820F0400041E8020292B1206850E8DF
:1028F000020F216820F0400041E802024AB120683E
:1029000050E8020F216820F0400041E80202002A4E
:10291000DAD12020C4F88C000020E066206850E85E
:10292000000F216820F0100041E80002DAB12068B1
:1029300050E8000F216820F0100041E8000292B139
:10294000206850E8000F216820F0100041E80002E4
:102950004AB1206850E8000F216820F0100041E8DB
:102960000002002ADAD1D4F88000FDF79DFD022094
:102970002067B4F85C00B4F85E10401A81B22046BB
:10298000BDE87040FFF710BE110240F1278110F042
:10299000804100F023812046BDE87040FFF794BEDF
:1029A00001230B62D4F8903043F00103C4F8903057
:1029B000930706F0010E0AD5BEF1000F07D00223DF
:1029C0000B62D4F8903043F00403C4F890305307FE
:1029D0000AD5BEF1000F07D004230B62D4F8903063
:1029E00043F00203C4F8903013070CD500F0200325
:1029F00053EA0C0307D008230B62D4F8903043F05D
:102A00000803C4F8903013050BD510F0806308D08C
:102A10004FF400630B62D4F8903043F02003C4F805
:102A20009030D4F89030002B3FF4E4AE12F0200246
:102A30001EBF00F0200006F0805210EB020040F0B4
:102A40006181D4F89000896800F0280001F040010D
:102A5000401807D12046FFF73BFE0020C4F8900045
:102A600070BD00BF206850E8000F216820F490700E
:102A700041E80002DAB1206850E8000F216820F434
:102A8000907041E8000292B1206850E8000F216880
:102A900020F4907041E800024AB1206850E8000F2D
:102AA000216820F4907041E80002002ADAD14FF644
:102AB000FE70CEF6FF7000BF216851E8021F226849
:102AC000014042E80213C3B1216851E8021F2268A5
:102AD000014042E8021383B1216851E8021F2268D5
:102AE000014042E8021343B1216851E8021F226805
:102AF000014042E80213002BDED1E06E012824D110
:102B0000206850E8000F216820F0100041E8000222
:102B1000DAB1206850E8000F216820F0100041E889
:102B2000000292B1206850E8000F216820F01000E8
:102B300041E800024AB1206850E8000F216820F007
:102B4000100041E80002002ADAD12020C4F88C00ED
:102B50000020E06621686067886840064AD500BFAB
:102B6000206850E8020F216820F0400041E802028E
:102B7000DAB1206850E8020F216820F0400041E8F7
:102B8000020292B1206850E8020F216820F0400054
:102B900041E802024AB1206850E8020F216820F0A3
:102BA000400041E80202002ADAD1D4F8800008B3DC
:102BB00043F2A921C0F600018163FDF7ADFC0028B6
:102BC0003FF418AED4F88000816BBDE87040084730
:102BD000A16F00297FF492AD0CE600BFD1017FF513
:102BE00009AEB0F1FF3FC8BF70BD2046BDE87040E0
:102BF000FFF7DCBC2046BDE87040FFF769BD00BFB1
:102C0000401A00BF216851E8001F226821F490712A
:102C100042E80013DBB1216851E8001F226821F46B
:102C2000907142E8001393B1216851E8001F2268B7
:102C300021F4907142E800134BB1216851E8001F64
:102C4000226821F4907142E80013002BDAD14FF68C
:102C5000FE71CEF6FF7100BF226852E8022F236892
:102C60000A4043E80226C6B1226852E8022F2368D0
:102C70000A4043E8022686B1226852E8022F236800
:102C80000A4043E8022646B1226852E8022F236830
:102C90000A4043E80226002EDED12021C4F88C1021
:102CA0000021E166616700BF216851E8001F2268CA
:102CB00021F0100142E80013DBB1216851E8001F48
:102CC000226821F0100142E8001393B1216851E815
:102CD000001F226821F0100142E800134BB1216867
:102CE00051E8001F226821F0100142E80013002B78
:102CF000DAD1022281B220462267BDE87040FFF798
:102D000053BC00BF626F002A3FF49BAE2046904741
:102D1000216896E610B5D8B10446D0F8880028B9E5
:102D2000002084F88400204600F026F82420C4F80F
:102D300088002068A16A026822F00102026011B1D5
:102D4000204600F085F9204600F0B6FA012801D1AE
:102D5000012010BD2168486820F4904048608868D0
:102D600020F02A008860086840F0010220460A60CE
:102D7000BDE8104000F0E0B92DE9F04196B00446FE
:102D8000684608303C21FDF70FFB206843F6000140
:102D9000C4F20101884203D016B0BDE8F08100BF43
:102DA00001200090002668460196FEF75DFB002892
:102DB00018BFFDF76DFB41F24C00C4F202004169FF
:102DC00040F2080841F4804141614169C4F20208BF
:102DD00001F4804111911199016841F002010160F3
:102DE000006811A900F0020011901198C020119004
:102DF0000220CDE912060720159040F20040C4F6EB
:102E000000001496FEF7FAF840F2E005C2F2000561
:102E100018204FF48061C5E9008005F11800802773
:102E2000202246C02846C5E90266C5E90476FDF7BA
:102E300007FC002818BFFDF72BFBC4F88050AC62DC
:102E400040F2401508F11400C2F2000519211022C9
:102E5000002385E88F002846C5E90533C5E9073317
:102E6000FDF7EEFB002818BFFDF712FB252002211D
:102E70000022E567AC62FEF71DFA2520FEF706FA90
:102E800016B0BDE8F081000070470000FEE70000CA
:102E9000FEE70000FEE700007047000070470000FA
:102EA00080B540F2E420C2F2000001680131016007
:102EB000FEF788F947F6D501C2F2E961484341F2CD
:102EC0006E214FEAB000C0F28301884204D9BDE808
:102ED0008040FEF77DB900BF40F60000C4F6000058
:102EE0004FF40051FEF760F9BDE88040FEF770B97D
:102EF0004EF68850CEF20000016841F47001016086
:102F00007047000080B540F2A01040F2940140F2FA
:102F10000C02C2F20000C2F20001C2F20002FDF790
:102F2000ABFC40F20420C2F20000BDE88040FFF795
:102F300031BA000080B540F2FF7C0268C4F2000C98
:102F4000604521DD40F60003C4F20003984224D01E
:102F500043F20043C4F2010398421ED042F60043FC
:102F6000C4F20103984218D043F2FF33C4F20103C4
:102F700098421CDC604529DCB0F1804F3CD040F227
:102F80000043C4F2000335E0B0F1804F05D040F2B9
:102F90000043C4F200039842E6D14B6822F070026D
:102FA0001A4343F2FF33C4F201039842E2DD44F2D4
:102FB000FF33C4F20103984212DC43F20043C4F22F
:102FC0000103984218D044F2000311E040F60003D8
:102FD000C4F2000398420FD042F6004308E000BF5D
:102FE00044F60003C4F20103984205D044F20043C2
:102FF000C4F20103984203D1CB6822F440721A4311
:103000004B6922F0800E8A6843EA0E03D1F800C0B3
:103010000360C262A0F18042A2F596324FEAB2226A
:10302000072AC0F828C007D8012303FA02F212F0D9
:10303000E50F1CBF09690163012141610169C907ED
:1030400008BF80BD016921F00101016180BD000060
:1030500080B5816A0A070DD4CA0716D18A071FD422
:103060004A0728D4CA0631D48A063AD44A0658D523
:1030700042E000BF0268D0F838C0536823F4004330
:1030800043EA0C035360CA07E8D00268D0F82CC0AA
:10309000536823F4003343EA0C0353608A07DFD5F7
:1030A0000268D0F830C0536823F4803343EA0C033D
:1030B00053604A07D6D50268D0F834C0536823F469
:1030C000802343EA0C035360CA06CDD50268D0F8CA
:1030D0003CC0936823F4805343EA0C0393608A0650
:1030E000C4D50268D0F840C0936823F4005343EA83
:1030F0000C0393604A0614D50268D0F844C05368A4
:10310000BCF5801F23F4801343EA0C03536008D1FD
:10311000D2F804C0D0F848E02CF4C00343EA0E0310
:103120005360090658BF80BD0168C06C4A6822F42C
:1031300000221043486080BDB0B582B00446002034
:10314000C4F89000FEF73EF8216805460A681207A9
:1031500037D56FF07E4C20464FF4001100222B46ED
:10316000CDF800C000F0FAF950B300BF206850E875
:10317000000F216820F0800041E80002DAB12068E9
:1031800050E8000F216820F0800041E8000292B171
:10319000206850E8000F216820F0800041E800021C
:1031A0004AB1206850E8000F216820F0800041E813
:1031B0000002002ADAD12020C4F8880060E000BFB5
:1031C00021680868400761D56FF07E4C20464FF4B7
:1031D000800100222B46CDF800C000F0BFF9002886
:1031E00054D000BF206850E8000F216820F4907090
:1031F00041E80002E2B1206850E8000F216820F4A5
:10320000907041E800029AB1206850E8000F2168F0
:1032100020F4907041E8000252B1206850E8000F9D
:10322000216820F4907041E80002002ADAD100BF42
:10323000206850E8020F216820F0010041E80202F6
:10324000DAB1206850E8020F216820F0010041E85F
:10325000020292B1206850E8020F216820F00100BC
:1032600041E802024AB1206850E8020F216820F0CC
:10327000010041E80202002ADAD12020C4F88C00C3
:103280000320002184F8841002B0B0BD2020C4F8CF
:103290008800C4F88C000020E0662067002184F8D4
:1032A000841002B0B0BD0000806A0021A0F85E105A
:1032B000A0F85610FFF70CBA70B5054605F10804E2
:1032C0001ECC0068194341EA0403EE69046846F61F
:1032D000F311CCF6FF71214019433143016041687D
:1032E00048F2000C21F4405111434160AA69C4F234
:1032F000000C60451CBF296A0A4381684FF2FF43F6
:10330000C1F2FF13194011438160C16AD5F824E06E
:1033100021F00F0141EA0E01C16244F6FF31C4F20F
:10332000000188424FF0100314DD44F60041C4F25E
:103330000001884222D0604528D043F60001C4F243
:103340000101884238D141F28801C4F202010B68C0
:103350007EA22DE044F20041C4F2000188421DD05B
:1033600044F60001C4F20001884225D141F28801EF
:10337000C4F2020109680B0916E000BF41F288019E
:10338000C4F2020109688B090EE000BF41F2880116
:10339000C4F2020109688B0A06E000BF41F288010D
:1033A000C4F2020109688B0843F68042C0F60002AD
:1033B00003F0030152F82130604542F20040C0F2B0
:1033C000F40015D0B6F5004F24D1082B4FF00101C1
:1033D00000F2B380DFE803F0065E6CB164B1B1B116
:1033E0006A0000BFFEF700FB002856D15CE000BF7A
:1033F000082B4FF0010100F2A080DFE803F0059EEA
:10340000259E1D9E9E9E2300FEF7EEFAC0B1D5F8C4
:1034100024E019E0082B4FF0010100F28E80DFE874
:1034200003F00565738C6B8C8C8C7100FEF7DCFAF5
:1034300000285ED164E000BFFEF702FB0028E6D161
:1034400000217AE04FF4004043F65841C0F60001F5
:1034500031F81E106A68B0FBF1F002EB42018842BD
:103460004FF0010169D31303984266D8010E0002A0
:1034700010EB520041F100010023FCF71DFF4FF655
:103480000052A0F54071C0F20F0291424FD30121CA
:1034900053E000BFFEF7BEFA30B1D5F824E007E0F4
:1034A000FEF7CEFA0028F8D1002146E04FF40040A4
:1034B00043F65841C0F6000131F81E106A68B0FBAF
:1034C000F1F0510801EB4000B0FBF2F04FF6EF7263
:1034D000A0F11001914207D84FF6F0710140C0F3FE
:1034E0004200084423E000BF012126E0FEF792FAE3
:1034F00030B1D5F824E007E0FEF7A2FA0028F8D1B1
:1035000000211AE04FF4004043F65841C0F6000194
:1035100031F81E104FF6EF72B0FBF1F0696800EB66
:103520005100B0FBF1F0A0F11001914204D82968DC
:10353000C860002101E000BF01214FF00110A86622
:10354000002208466A67AA6770BD00BF010000003C
:103550000400000002000000080000002DE9F04116
:10356000804600681546C2690E461140891BB1FAB3
:1035700081F14909A94223D1069C2CB3611C29D1B0
:10358000C1693140891BB1FA81F14909A94217D1BA
:10359000C1693140891BB1FA81F14909A9420FD1B2
:1035A000C1693140891BB1FA81F14909A94207D1AA
:1035B000C1693140891BB1FA81F14909A942DFD0C3
:1035C0000020BDE8F08100BFFDF7FCFD0320BDE851
:1035D000F08100BF1F4607E0C0693040801BB0FA91
:1035E00080F04009A842EBD1FDF7ECFDC01BA042E2
:1035F00000F2AE80D8F8000001684907ECD5402EF3
:10360000EAD0802EE8D0C169090700F1A580C16920
:103610000905E1D54FF400610162D8F8000050E8D7
:10362000000FD8F8001020F4907041E800020AB3AF
:10363000D8F8000050E8000FD8F8001020F490707F
:1036400041E80002B2B1D8F8000050E8000FD8F805
:10365000001020F4907041E800025AB1D8F8000040
:1036600050E8000FD8F8001020F4907041E80002F4
:10367000002AD2D14FF6FE70CEF6FF70D8F80010B7
:1036800051E8021FD8F80020014042E80213F3B1CC
:10369000D8F8001051E8021FD8F80020014042E895
:1036A0000213A3B1D8F8001051E8021FD8F8002087
:1036B000014042E8021353B1D8F8001051E8021F4C
:1036C000D8F80020014042E80213002BD6D1D8F8E8
:1036D0006C0001282CD1D8F8000050E8000FD8F871
:1036E000001020F0100041E800020AB3D8F80000F2
:1036F00050E8000FD8F8001020F0100041E8000258
:10370000B2B1D8F8000050E8000FD8F8001020F04F
:10371000100041E800025AB1D8F8000050E8000F4C
:10372000D8F8001020F0100041E80002002AD2D1A1
:1037300020200021C8F88C00C8F86C10C8F874105C
:10374000C8F89000032088F88410BDE8F08100BF1D
:103750000320BDE8F08100BF08210162D8F8000015
:1037600050E8000FD8F8001020F4907041E80002F3
:103770000AB3D8F8000050E8000FD8F8001020F481
:10378000907041E80002B2B1D8F8000050E8000F94
:10379000D8F8001020F4907041E800025AB1D8F82F
:1037A000000050E8000FD8F8001020F4907041E8B5
:1037B0000002002AD2D14FF6FE70CEF6FF70D8F884
:1037C000001051E8021FD8F80020014042E802131F
:1037D000F3B1D8F8001051E8021FD8F800200140DA
:1037E00042E80213A3B1D8F8001051E8021FD8F83C
:1037F0000020014042E8021353B1D8F8001051E80C
:10380000021FD8F80020014042E80213002BD6D155
:10381000D8F86C0001282CD1D8F8000050E8000F2F
:10382000D8F8001020F0100041E800020AB3D8F8E0
:10383000000050E8000FD8F8001020F0100041E818
:103840000002B2B1D8F8000050E8000FD8F800101C
:1038500020F0100041E800025AB1D8F8000050E80A
:10386000000FD8F8001020F0100041E80002002AF4
:10387000D2D12020C8F88C0000200821C8F86C00A4
:10388000C8F87400C8F8901088F884000120BDE8DA
:10389000F081000040F25020C2F20000FEF71ABF93
:1038A000FEE7000094B0FDF7A1FC002400200C947A
:1038B000CDE90A44CDE90844FDF738FD01204FF475
:1038C00080310325069007910221CDE90E50282072
:1038D000CDE9100106A80D91CDE91211FEF7F0F81F
:1038E00020B1EFF3108072B6FEE700BF0F20CDE9E4
:1038F000010501A80421CDE903440594FDF7EAFE82
:1039000020B1EFF3108072B6FEE700BF41F24C0722
:103910004FF00009C4F20207CDF82890386840F64D
:10392000000440F0040038603868C4F6000400F079
:1039300004000190019838684FF4005140F02000D5
:1039400038603868012200F0200001900198386842
:103950004FF4005640F00200386038684FF0010B19
:1039600000F0020001900198386840F001003860D2
:10397000386800F00100019001982046FDF71CFC1A
:10398000A4F5806528464FF4004100224FF400481A
:10399000FDF712FC2046402100224FF0400AFDF7BF
:1039A0000BFCCDE9066B06AE20463146CDE908B9E1
:1039B000FDF724FBCDE9068B4FF00208284631467F
:1039C000CDE9088BFDF71AFB2046314646F200464A
:1039D000CDE906ABCDE9088BC4F20006FDF70EFB7E
:1039E00040F2A010C2F200004FF48071C0E9021949
:1039F00040F2011101820621212204250723C0E99A
:103A00000551C0E9072100F12C01C0E9006980F8E7
:103A10001290C0E9095881E80803C0E90E99FDF742
:103A200033F928B1EFF3108072B600BFFEE700BF94
:103A300040F2A010C2F2000006A9CDE90699CDE936
:103A4000088BCDE90ABBFCF777FF28B1EFF31080B4
:103A500072B600BFFEE700BF57F8040C002140F02B
:103A6000040047F8040C57F8040C002200F004008E
:103A70000690069857F8040C002440F0010047F81F
:103A8000040C57F8040C00F00100069006980B2077
:103A9000FDF710FC0B20FDF7F9FB0C2000210022A4
:103AA0000C25FDF707FC0C20FDF7F0FB40F2502041
:103AB00006F55441C2F200004FF4E13280E81600EE
:103AC000802181624FF40021C0E90344C0E905541C
:103AD000C461C0E90844C164FFF71CF920B1EFF3E9
:103AE000108072B6FEE700BF40F25020C2F2000024
:103AF0000021FEF7A3FD28B1EFF3108072B600BFDE
:103B0000FEE700BF40F25020C2F200000021FEF7A5
:103B10004FFD28B1EFF3108072B600BFFEE700BF83
:103B200040F25020C2F20000FEF722FD20B1EFF378
:103B3000108072B6FEE700BF40F20420002106F5B7
:103B40004842C2F200009F2340F2E7370991CDE9D5
:103B50000711C0E90023C0E90217C0E9041181611F
:103B6000FEF77AFA20B1EFF3108072B6FEE700BFDD
:103B70004FF48050069040F20420C2F2000006A9E3
:103B8000FEF706FB20B1EFF3108072B6FEE700BF30
:103B900040F20424C2F20004002501A92046CDE928
:103BA00001550395FEF704FA20B1EFF3108072B6C9
:103BB000FEE700BF40F28000C2F2000003210B22AA
:103BC000C0E90515C0E9075200F12401C0E90C5510
:103BD00040F2A0104FF00043C2F200004FF4001773
:103BE000A8C1FDF7E9F918B1EFF3108072B6FEE74E
:103BF00040F2A010C2F2000001210022FCF7B6FD45
:103C000020B1EFF3108072B6FEE700BF20686FF0BE
:103C1000010101612046FEF775FA2068C16841F094
:103C20000101C160FEE7F1EE100A4FF6FF71C0F22C
:103C3000C03120EA010040F04070E1EE100A704708
:103C4000000000000000000001020304060708094C
:103C5000000000000102030401000200040006004D
:103C600008000A000C001000200040008000000145
:103C70000001020304050607080C10141820304048
:103C80000000000004000000020000000800000026
:103C900001010103070100000804020408010101F9
:103CA000C03C0008000000202000000014020008B2
:103CB000E03C000820000020D0080000300200088E
:103CC00010000000010000000024F400F0F1F2F305
:103CD000F4F5F6F7F8F9AABBCCDDEEFFAFFA112246
:04000005080001D915
:00000001FF
