:020000040800F2
:10000000B008002089010008092E0008012E000810
:10001000052E000845020008D52F0008000000004A
:10002000000000000000000000000000292E000871
:1000300055020008000000000D2E00082D2E0008BB
:10004000A3010008A3010008A3010008A301000800
:10005000A3010008A3010008A3010008A3010008F0
:10006000A3010008A3010008A30100084902000839
:10007000A3010008A3010008A3010008A3010008D0
:10008000A3010008A3010008A3010008A3010008C0
:10009000C92F0008A3010008A3010008A30100085C
:1000A000A30100086D2E0008A3010008A3010008A9
:1000B000A3010008A3010008A3010008A301000890
:1000C000A3010008A3010008A3010008112E0008E5
:1000D000A3010008BD2F0008A3010008A301000828
:1000E000A3010008A3010008A301000800F002F822
:1000F00000F03AF80AA090E8000C82448344AAF188
:100100000107DA4501D100F02FF8AFF2090EBAE885
:100110000F0013F0010F18BFFB1A43F0010318473B
:100120003834000058340000103A24BF78C878C131
:10013000FAD8520724BF30C830C144BF04680C60ED
:10014000704700000023002400250026103A28BF35
:1001500078C1FBD8520728BF30C148BF0B60704739
:100160001FB51FBD10B510BD00F031F81146FFF7E7
:10017000F7FF02F031FF00F04FF803B4FFF7F2FF92
:1001800003BC00F057F800000948804709480047C1
:10019000FEE7FEE7FEE7FEE7FEE7FEE7FEE7FEE737
:1001A000FEE7FEE704480549054A064B7047000094
:1001B000692E0008ED000008B0020020B008002001
:1001C000B0040020B00400207047704770477546A7
:1001D00000F02CF8AE4605006946534620F00700B3
:1001E000854618B020B5FFF7DDFFBDE820404FF091
:1001F00000064FF000074FF000084FF0000BAC4630
:10020000ACE8C009ACE8C009ACE8C009ACE8C0097A
:1002100021F007018D46704710B50446AFF300800A
:100220002046BDE81040FFF7A8BF00000048704717
:100230001000002001491820ABBEFEE72600020096
:1002400070470000FEE7000040F22010C2F20000FC
:1002500000F008BE70470000EFF3108072B600BFD8
:10026000FEE7000010B581B00022009290F8242033
:10027000012A03D10221084601B010BD4B680122BA
:10028000062B80F8242017D8D0F800C003EB830396
:100290005A1F1F23DCF834E003FA02F40B682EEA3D
:1002A000040403FA02F22243CCF83420092B03EBB6
:1002B000430219D936E000BFD0F800C00C2B03EB85
:1002C00083021DD8233A1F23DCF830E003FA02F43E
:1002D0000B682EEA040403FA02F22243CCF8302021
:1002E000092B03EB43021DD8DCF810300724896882
:1002F0009440A34391401943CCF81010002130E002
:10030000413A1F23DCF82CE003FA02F40B682EEAD2
:10031000040403FA02F22243CCF82C20092B03EB4D
:100320004302E1D9DCF80CE01E3A072489689440C6
:100330002EEA0404914023F001022143102ACCF854
:100340000C100DD142F20841C4F20101A1F10802E2
:1003500094450DD0816A41F020018162012100E0C5
:100360000021002280F82420084601B010BD00BF03
:100370000A68120230D40A68102B42F400020A60A4
:100380002CD140F20801C2F2000109684DF68362E7
:10039000C4F21B32A1FB0212910C01EB8101490056
:1003A00000910099E1B10099013900910099C9B11A
:1003B0000099013900910099B1B10099013900917A
:1003C000009999B1009901390091009900294FF0E5
:1003D0000001E8D1C5E700BF0021C2E70021C0E766
:1003E0000021BEE70021BCE70021BAE70021B8E701
:1003F000B0B5002800F0A8800446806A20B12168CA
:100400008868C0070BD114E00020E06284F8240063
:10041000204600F09BF821688868C00709D08868EA
:1004200020F00100886000F061FF21688A68D2072F
:1004300026D1A06AC0063AD4A06A41F202129043C3
:100440000230A062E069D4E9013240EA030C531E95
:10045000B3FA83F35D091346B2F5807F18BF2B0210
:10046000207D257B01284CEA450030D135B3A56AB3
:1004700045F02005A562E56A45F00105E56226E044
:10048000054602E08868C007D3D000F02FFF401B6C
:1004900021680328F6D38868C007F3D0A06A40F02B
:1004A0001000A062E06A40F00100E062A06AA06A69
:1004B00040F01000A0620120B0BD00BFD4F818C009
:1004C0004EF60005CFF6FF7505EB4C352B434D6816
:1004D000B2F5807F25F4694543EA05034B608B68DC
:1004E0004FF2FD75CFF6E17503EA050343EA000319
:1004F0008B6001D0012A07D122690023CFF6F07367
:1005000003EB025201E000BF0022CB6A23F4700328
:100510001A43CA62896840F6FE62CFF61F72114024
:10052000814207D10020E062A16A012262F3010149
:10053000A162B0BDA06A40F0100020F00200A062ED
:10054000E06A40F00100E0620120B0BD70B586B005
:10055000044640F60000C4F20100216800F5E052B4
:10056000002691420596049602D006B070BD00BFE9
:1005700041F21801C4F202010A6842F400720A60F2
:100580000A6802F400720192019A0A6842F00402B9
:100590000A60096801F00401019101990E2102919C
:1005A0000321039102A900F085FD40F220150820E7
:1005B000C2F20005C4F202004FF48072C5E90006E1
:1005C00005F1100080214FF480634FF0200C80E88B
:1005D0000C102846C5E90261EE6100F013FD002809
:1005E00018BFFFF739FE25626C6206B070BD0000CF
:1005F00090F82020013A012A08D8006800F114027E
:100600000020136819431160704700BF00F12402F5
:1006100001204FF4802113681943116070470000D6
:1006200010B590F820E0D0F800C0AEF1010EBEF198
:10063000010FDCF808E011D81EF0E05F18D0CEF30F
:10064000016E012000FA0EF018608B68D3B1486883
:10065000CC6844EAC000034318E000BF00F1240165
:1006600001204FF480220B681A430A6010BD00BFBE
:1006700000F1240101204FF400120B681A430A60B4
:1006800010BD00BF0868CB6843EA40530CEB0E1066
:10069000C0F880310B69C0F88431097D012905D18A
:1006A00000F5C2710B6843F480730B605168C0F8A9
:1006B0008C11126800F5C071C0F888210020012259
:1006C0000B681A430A6010BDB0B5026890F820307C
:1006D000013B012B28D8D2F80002012340F0010091
:1006E000C2F80002D1F814E0CC690EF01F0003FA42
:1006F00000F0D2F81C326FEA000C8343012CC2F8E0
:100700001C3217D06CBBD2F80C3203EA0C03C2F8CF
:100710000C32CB688C8844EA034302EBCE04C4F865
:1007200040320B4615E000BF416A41F4802141622E
:100730000120B0BDD2F80C320343C2F80C320B6872
:100740008C8844EA034302EBCE04C4F8403201F142
:100750000C038C681B8843EA044302EBCE04C4F804
:100760004432D2F804328D6943EA0004D1F810E033
:10077000096A002D08BF03EA0C04C2F80442D2F84B
:100780001432BEF1000F43EA000408BF03EA0C0470
:100790000129C2F8144204D1D2F81C120843C2F84D
:1007A0001C02D2F8000220F00100C2F80002002072
:1007B000B0BD00007047000010B590F82040013C2B
:1007C000012C7BD8D0F800C0002900F08180DCF833
:1007D0001040A40700F081800CEB011CDCF8B04154
:1007E0000CF5D87E14F004049460DCF8B04119BF15
:1007F000E4085460640D1460DEF800400CF5DA7E05
:1008000004F00204D460DCF8B44124075ABFDEF8D7
:10081000004004F00F0408241461DEF800400029B1
:10082000C4F307249461DEF800404FEA1444546195
:10083000DCF8B8211A70026802EB0112D2F8B82174
:100840004FEA12225A70026802EB0112D2F8B82164
:100850004FEA12429A70026802EB0112D2F8B821F4
:100860004FEA1262DA70026802EB0112D2F8BC2180
:100870001A71026802EB0112D2F8BC214FEA12226F
:100880005A71026802EB0112D2F8BC214FEA1242FF
:100890009A71026802EB0112D2F8BC214FEA12628F
:1008A000DA71006814BF00F1100100F10C010020A2
:1008B00020220B681A430A6010BD00BF00F124011A
:1008C00001204FF480220B681A430A6010BD00BF5C
:1008D000DCF80C40A4077FF47FAF00F12401012075
:1008E0004FF400120B681A430A6010BD2DE9F04F57
:1008F00081B0044600684669D0F804908768D0F853
:100900000CB0D0F810A0D0F81880F10704D1002561
:1009100030071DD424E000BFF90710D00121BA0729
:10092000816009D4780700F1AF80380700F1B68004
:10093000204600F00BFA02E0204600F009FA0025FC
:10094000F80500F18780F80300F1B180300707D582
:100950001BF0100004D0206845F400751021C16020
:10096000700708D51BF0080005D020680821C16079
:10097000204600F0ABF9B00706D52068C0688007B4
:1009800002D0204600F0A4F9700607D51AF0100036
:1009900004D0206845F4806510210161B00608D5B7
:1009A0001AF0080005D0206808210161204600F0F7
:1009B00099F9F00606D520680069800702D0204624
:1009C00000F092F9B00308D519F0100005D02068A6
:1009D00010214160204600F089F9F00308D519F094
:1009E000080005D0206808214160204600F0BAF9CF
:1009F000300440F19B805FEA497040F1948006F436
:100A0000807008EA102028435FEA8871014648BFD9
:100A100041F00201B20558BF01465FEA48700D4639
:100A200048BF45F00405700558BF0D46300540F13C
:100A30007A8018F0700000F07680103800090528E0
:100A40006CD8DFE800F003595D61656945F0080581
:100A500064E000BF20684FF48071BA0581600BD458
:100A6000780515D438051DD4204600F073F9F80335
:100A70007FF56CAF1BE000BF204600F06DF9F80376
:100A80007FF564AF13E000BF4FF4006558E700BF87
:100A900005F50055F8037FF559AF08E04FF4805590
:100AA0004EE700BF05F58045F8037FF54FAF20689E
:100AB0004FF48031BA0381600AD4780310D438032C
:100AC00014D4204600F04AF930073FF541AF47E71C
:100AD000204600F045F930073FF53AAF40E700BF48
:100AE00005F5004530073FF533AF39E705F58035AB
:100AF00030073FF52DAF33E745F010050EE000BF9E
:100B000045F020050AE000BF45F0400506E000BFC3
:100B100045F0800502E000BF45F4807520688169DA
:100B200021F07001816120680421416055B1606A43
:100B300040EA05012046616201B0BDE8F04FFFF7D1
:100B400039BE00BF01B0BDE8F08F0000B0B5C8B13C
:100B5000044690F8200010B9204600F071F8206893
:100B6000016841F00101016000F0C0FB054600BFD3
:100B700020684168C90707D100F0B8FB401B0B286B
:100B8000F6D312E00120B0BD016821F0020101603E
:100B900000F0ACFB054600BF2068416889070DD511
:100BA00000F0A4FB401B0B28F6D3606A052140F43B
:100BB00000306062012084F82010B0BD217E026800
:100BC000012922F0800208BF80320260617E026843
:100BD000012922F0400208BF40320260A17E026873
:100BE000012922F0200208BF20320260E17E026863
:100BF000012922F0100218BF10320260217F026822
:100C0000012922F0080208BF08320260617F0268F1
:100C1000012922F0040208BF04320260D4E901C2B3
:100C2000D4E9033561691A432A431143ACF1010247
:100C30001143C16100200121606284F82010B0BD21
:100C4000B0B586B040F60004C4F201040068A4F513
:100C5000244200219042059102D006B0B0BD00BFF1
:100C600041F21800C4F20200426802AD42F0007284
:100C70004260426802F000720192019A026842F0FA
:100C800004020260006800F00400019001984FF433
:100C90000060CDE90201012004902046294600F0C1
:100CA00009FA4FF48050029002200390032005902F
:100CB0002046294600F0FEF914200421002200F00D
:100CC00097FB142000F080FB06B0B0BD7047000019
:100CD00040F27003C2F2000303F13C020021FFF76F
:100CE0006BBD0000704700007047000070470000B7
:100CF000B0B5044690F8200001281DD1022084F8E8
:100D000020002068016821F00101016000F0EEFA86
:100D1000054600BF20684068C00713D000F0E6FA1F
:100D2000401B0B28F6D3606A40F400306062052057
:100D300084F820000120B0BD606A40F400206062A9
:100D40000120B0BD00206062B0BD0000704700000F
:100D500070470000704700007047000070470000B7
:100D60007047000070470000014690F821000228FB
:100D700016D10868D1E90FC3026822F00E020260A2
:100D8000026822F001020260012000FA03F2CCF8AE
:100D9000042081F821000020002281F820207047E3
:100DA000042088630120002281F820207047000081
:100DB00080B590F82110022924D10268116821F031
:100DC0000E0111602F211368C4F202018A4240F221
:100DD0000401C4F2020123F00103136016DD302385
:100DE000C4F202039A421DD04423C4F202039A4281
:100DF0001CD05823C4F202039A421DD14FF4803311
:100E000022E000BF04218163012080BD0823C4F2D9
:100E100002039A420ED01C23C4F202039A420BD161
:100E2000102311E04FF480730EE000BF4FF48053A5
:100E30000AE000BF012307E001F1680C4FF0807366
:100E4000624508BF4FF480130B60012180F8211028
:100E5000426B002180F820100AB19047002108461B
:100E600080BD000010B5D0E90FCE0168DCF800307D
:100E70000A6823FA0EF35C072AD512F0040427D07F
:100E80000A68920603D40A6822F004020A602F223C
:100E9000C4F20202914240F20402C4F202025BDD9B
:100EA0003023C4F20203994272D04423C4F20203F5
:100EB000994273D05823C4F20203994240F07A80D9
:100EC0004FF480231360C16A002940F098806FE0DE
:100ED0009C0727D512F0020424D00A68920606D493
:100EE0000A6822F00A020A60012280F821202F22DB
:100EF000C4F20202914240F20402C4F202023BDD5B
:100F00003023C4F20203994260D04423C4F20203A6
:100F100099425FD05823C4F20203994260D14FF442
:100F2000003365E01B0743D512F0080208BF10BD6F
:100F30000A6822F00E020A60012101FA0EF2CCF8D2
:100F40000420816380F82110016B0022002980F8C1
:100F5000202054D12CE000BF0823C4F202039942A0
:100F600022D01C23C4F20203994223D140231360F0
:100F7000C16A002943D11BE00823C4F2020399424D
:100F80002CD01C23C4F20203994229D120232FE044
:100F90004FF480631360C16A89BB09E04FF480435A
:100FA0001360C16A59BB03E004231360C16A31BBFB
:100FB00010BD00BF02F168044FF08063A14208BF7A
:100FC0004FF480031360C16AC9B9F1E74FF40073AD
:100FD0000EE000BF4FF400530AE000BF022307E019
:100FE00002F168044FF00073A14208BF4FF40013F0
:100FF0001360816A0022002980F82020D8D0BDE843
:1010000010400847014600284FF0010008BF704714
:101010002DE9F043D1F800C04FF6F873CBF6FD731D
:101020004CF6CD426344CCF6CC42A3FB02236FF0D6
:10103000030707EA93030027C4F2020701F10C0932
:10104000C1E90F730223D1E9012E99E87002D1F8AA
:101050001C8081F82130DCF8003043F6F077BB4388
:101060001A4342EA0E0222432A43324342EA090269
:1010700042EA0802CCF8002000228A6381F82100AD
:1010800081F820200020BDE8F0437047B0B5044649
:1010900000F02CF9054640F20000C2F20000007892
:1010A000611C18BF044400BF00F020F9401BA0429F
:1010B000FAD3B0BD2DE9F04F82B00E68002E00F0DB
:1010C000038141F20042C4F20102042340F2004EC7
:1010D000904208BF03234FF6FF7CC4F2010E009339
:1010E00000240123C1F2100C4FF0000A4FF0000958
:1010F00049E000BF012704F00C030F229A402BEABD
:10110000020207FA03F34FEA9A051A4346F825202C
:10111000D1F804B040F20C455FEACB22DEF808209B
:1011200054BF22EA080242EA0802C4F20105CEF8DE
:1011300008202A685FEA8B2354BF22EA080242EAA9
:1011400008022A605FEA8B33DEF8042054BF22EAEB
:10115000080242EA08025FEACB33CEF80420DEF848
:1011600000204FF0010354BF22EA080242EA0802BD
:10117000CEF800200E680AF1010A36FA0AF204F1EC
:10118000040400F0A18003FA0AF816EA080FF1D06F
:101190004E68664512DC122E56D8DFE806F0350B95
:1011A0004549555555555555555555555555554D13
:1011B000510000BFD1F80C9046E000BF4FF6FF721F
:1011C000C1F2210296420FDC0022C1F211029642C6
:1011D0001AD00022C1F21202964215D00022C1F2AA
:1011E0002102964210D02FE00022C1F22202964244
:1011F0000AD00022C1F23102964205D00022C1F28B
:101200003202964220D100BF8A684AB1012A14BF37
:10121000C0F81480C0F810804FF0080914E000BF37
:101220004FF0040910E000BFCA6802F108090BE0A2
:101230004FF0000908E000BFCA6802F1040903E0AA
:10124000CA6802F10C0900BF22460646BAF1080F2F
:1012500024BF203A043637680F25954027EA050554
:1012600009FA02F22A433260CA79D2067FF582AFC8
:1012700041F21803C4F202031A68AEF57E7642F01A
:1012800001021A601A6802F001020192019A2AF022
:10129000030256F802B040F60002C4F20102904286
:1012A00010D040F60042C4F2010290423FF422AF57
:1012B00041F20002C4F20102009F904208BF0227DF
:1012C00019E700BF002716E702B0BDE8F08F000065
:1012D000C26802EA0103914341EA03410161704798
:1012E000002A08BF090401617047000040F2AC20E9
:1012F000C2F200000068704740F2000040F2AC21EA
:10130000C2F20000C2F2000100780A6810440860CE
:101310007047000080B542F20000C4F2020001688C
:1013200041F010010160032000F08EF8002000F071
:1013300005F800F027F8002080BD000070B540F2ED
:101340000006C2F2000640F208013278C2F2000143
:101350004FF47A730968B3FBF2F20446B1FBF2F181
:10136000084600F04DFD0F2C4FF0010508D838B9A4
:101370004FF0FF3021460022002500F039F874605C
:10138000284670BD82B041F21800C4F20200016824
:10139000022241F001010160016801F001010191A7
:1013A0000199416841F080514160406800F08050EF
:1013B000009000980420C4F20100016862F31A61F1
:1013C000016002B070470000002848BF7047C1B2FA
:1013D00000F01F00012202FA00F04EF20012CEF2DD
:1013E000000242EAD10121F00301086070470000C9
:1013F00010B54EF60C5CCEF2000CDCF80030C3F3F6
:10140000022E8EF00704042C28BF0424BEF103032F
:101410004FF0FF3E0EFA04F438BF0023A143994079
:101420000EFA03F39A43114300F00F0200F16043F8
:101430000901043A03F564436244002848BF02F1FD
:101440000C03197010BD00004EF60C51CEF20001D5
:101450000A684FF6FF031A4060F30A2242F08060E8
:1014600040F0FD70086070472DE9F04182B00446FD
:10147000007841F21C06C007C4F202064AD0306868
:1014800010F0805808D1306840F0805030603068EB
:1014900000F080500190019847F20007C4F2000765
:1014A0003868C00512D4386840F480703860FFF79F
:1014B0001DFF05463868C00508D4FFF717FF401B1D
:1014C0006428F7D9032002B0BDE8F081706810F4F9
:1014D000407012D0616801F4407188420DD070688C
:1014E00040F24042C4F24222012320F440711360D2
:1014F0000023C007136071602AD17068616820F40E
:1015000040700843B8F1000F706003D1306820F0DC
:10151000805030602068810707D556F8181CA268F3
:1015200021F44041114346F8181CC00604D40020A1
:1015300002B0BDE8F08100BF56F8180CE16820F455
:101540008000084346F8180C002002B0BDE8F08186
:10155000FFF7CCFE054641F2883700BF7068800770
:10156000CBD4FFF7C3FE401BB8424FF00300F5D9C0
:10157000EBE700002DE9F04381B0002800F0858002
:1015800042F20008C4F202080446D8F800000D46F2
:1015900000F0070088420CD2D8F8000020F00700C5
:1015A0002843C8F80000D8F8000000F00700A8425F
:1015B0006BD1206841F204098107C4F2020917D5F2
:1015C000410705D5D9F8001041F4E061C9F80010D1
:1015D000010705D5D9F8001041F46051C9F8001091
:1015E000D9F80010A26821F0F0011143C9F80010E9
:1015F000C00741D1D8F8000000F00700A8420CD97C
:10160000D8F8000020F007002843C8F80000D8F8F8
:10161000000000F00700A84237D12068410707D535
:10162000D9F80010E26821F4E0611143C9F8001014
:10163000000708D5D9F80000216920F4605040EA7D
:10164000C100C9F80000D9F8002002F00C000828F9
:1016500041F20020C0F27A0050D143F24653C2F367
:101660008341C0F60003595CD2033BD440F600101E
:10167000C0F23D00484341E0606802280AD00128DA
:101680002AD159F8041C890308D4012001B0BDE80F
:10169000F08300BF59F8041C8901F6D5D9F8001071
:1016A00021F003010843C9F80000FFF71FFE0646BA
:1016B00041F28837D9F80000616800F00C00B0EB07
:1016C000810F97D0FFF712FE801BB842F2D903209A
:1016D00001B0BDE8F08300BF59F8041C8907D4D5D8
:1016E000DCE700BFD9F8002043F24453C2F3404284
:1016F000C0F600039A5C4843B0FBF2F0D9F8001042
:1017000043F22C52C1F30311C0F60002515C40F2C7
:10171000080220FA01F140F20400C2F20000006861
:10172000C2F200021160FFF709FE002001B0BDE81F
:10173000F083000040F2080041F20401C2F2000010
:10174000C4F202010068096843F23C52C1F302216D
:10175000C0F60002515CC8407047000040F208002B
:1017600041F20401C2F20000C4F2020100680968FB
:1017700043F23C52C1F3C221C0F60002515CC840A2
:10178000704700002DE9F04182B0002868D004467F
:10179000007841F20006C007C4F2020625D0706846
:1017A00000F00C0004281BD0706800F00C00082822
:1017B00002D17068C00313D46068002800F068810B
:1017C000B0F5A02F00F07C81B0F5803F00F07C8167
:1017D000306820F480303060306820F4802076E17A
:1017E0003068800301D56068D0B32078800718D5B1
:1017F000706810F00C0F07D0706800F00C0008281B
:101800006ED17068C0036BD43068800702D5206940
:10181000012825D13068616920F0F80040EAC10054
:101820003060207800071FD42078400732D4E56963
:1018300095B1706800F00C00082840F08F80012DF1
:101840000ED07068216A00F480328A4208D1616A41
:1018500000F47010884203D1002002B0BDE8F0818E
:10186000012002B0BDE8F081A069002862D000200C
:10187000C4F242200121C0F88014FFF737FD05466D
:10188000706A800700F18C80FFF730FD401B022852
:10189000F6D92AE1F06910F0805808D1F06940F0DB
:1018A0008050F061F06900F080500090009847F29D
:1018B0000007C4F200073868C00529D4386840F42E
:1018C00080703860FFF712FD054600BF3868C0051C
:1018D0001ED4FFF70BFD401B6428F7D905E100BFBC
:1018E0002069002840F20000C4F2422000F082800B
:1018F00001210160FFF7FAFC054600BF3068800750
:101900003FF588AFFFF7F2FC401B0228F6D9ECE068
:10191000E068002800F08080052800F0978001280A
:1019200000F09880306A20F001003062306A20F0C8
:10193000040092E00020C4F242200021C0F880148C
:10194000FFF7D4FC054600BF706A80077FF56CAFD7
:10195000FFF7CCFC401B0228F6D9C6E00027C4F2F2
:10196000422700203866FFF7C1FC022D05460BD147
:101970003068800140F1BE80FFF7B8FC401B0228B0
:101980004FF00300F4D968E7306880017FF564AF59
:10199000FFF7ACFC401B02284FF00300F4D95CE7D2
:1019A00040F20800C2F20000006844F6D351C1F2D0
:1019B0006201A0FB0101480A019000BF00BF01982D
:1019C000411E002801913FF42FAF00BF0198411E36
:1019D000002801913FF428AF00BF0198411E002864
:1019E00001913FF421AF00BF0198411E00280191F1
:1019F000E4D119E700210160FFF778FC054600BF3C
:101A0000306880077FF50DAFFFF770FC401B0228A0
:101A10004FF00300F4D920E7306A20F00100306273
:101A2000306A20F004003062FFF760FC054641F2A6
:101A3000883700BF306A800720D5FFF757FC401B6E
:101A4000B8424FF00300F5D907E700BF306A40F015
:101A500004003062306A40F001003062FFF746FC5B
:101A6000054641F2883700BF306A800706D4FFF789
:101A70003DFC401BB842F7D937E000BFB8F1000F7A
:101A80007FF4D5AEF06920F08050F061CFE600BF62
:101A9000306820F480303060306820F4802030607E
:101AA000FFF724FC054600BF306880037FF59DAE3C
:101AB000FFF71CFC401B64284FF00300F4D9CCE670
:101AC000306840F480203060306840F4803030600E
:101AD000FFF70CFC054600BF306880033FF585AE7C
:101AE000FFF704FC401B6428F6D9032002B0BDE8D0
:101AF000F08100BF206AB0F5803F05D17168A2680F
:101B000021F40031114371607168626A21F474112B
:101B100011430843706001203866FFF7E7FB044675
:101B2000306880013FF598AEFFF7E0FB001B02280C
:101B30004FF00300F4D990E670470000B0B584B0D0
:101B4000044600684168826812F0400305D112F033
:101B5000010518BF11F0400512D1950708D511F005
:101B6000800505D0616C204604B0BDE8B040084750
:101B700012F0600F18BF11F0200507D104B0B0BDFE
:101B8000216C204604B0BDE8B0400847BBB194F8D2
:101B90005130032B08D100210291C1680291806865
:101BA0000290029804B0B0BD636D43F00403636516
:101BB00000230393C368039383680393039B12F08A
:101BC00020020CD0626D42F0010262650022019297
:101BD00082680192026822F040020260019A626DFE
:101BE000002ACBD04268890722F0E00242604FF021
:101BF000010284F851201FD0416842F61D6521F092
:101C000003014160E06CC0F6000538B14563FFF7A1
:101C1000CFF818B1606D40F040006065A06C0028FE
:101C2000ACD04563FFF7C4F80028A7D0606D40F042
:101C30004000606504B0B0BD204604B0BDE8B040CF
:101C4000FFF77ABF70B538B10446406A30B1002062
:101C5000206104F1140007E0012070BD6068B0F558
:101C6000827F03D004F11C00002101600026A662DF
:101C700094F8510020B9204684F8506000F038F8FC
:101C8000022084F8510094E8071001F4827103687F
:101C900002F4044223F040030360236911440CF46E
:101CA0000062114403F002026369114403F001026F
:101CB000A369E569114403F40072114405F0380288
:101CC000256A114405F08002A56A114305F400520B
:101CD00011430160042101EA13414160C16921F40B
:101CE0000061C1610120666584F85100304670BD15
:101CF00070B586B0006843F60002C4F2000200210D
:101D000090420591CDE90311029147D043F20001C1
:101D1000C4F20101884270D141F21800C4F20200FD
:101D2000016840F6004441F4805101600168C4F24A
:101D3000010401F4805101910199016802AD41F063
:101D4000080101600068022600F008000190019877
:101D50002820029003200590204629460396FFF78D
:101D6000A9F9102002900020CDE90306204629465B
:101D7000FFF7A0F90420C4F201000168002241F03D
:101D8000E06141F00101016023200221FFF730FBF7
:101D90002320FFF719FB06B070BD00BF41F2180009
:101DA000C4F20200426840F6004442F480424260BD
:101DB0004268C4F2010402F480420192019A02686E
:101DC00002AD42F008020260006800F008000190D5
:101DD00001984FF43040CDE9020104912046294694
:101DE000FFF768F94FF4804002900220039003202F
:101DF000059020462946FFF75DF906B070BD00004A
:101E0000411E0020B0EB116F1CBF012070474EF245
:101E10001002CEF2000251604EF62351CEF20001C4
:101E2000F0230B700721906011607047704700002D
:101E300070470000B0B590F83C20012A04BF022092
:101E4000B0BD01F108053CCDD1E900CE23F47C53AF
:101E500022F470521A432EF4F0431A432CF4E04358
:101E60001A4324F4C0431A432A43C96922F4804226
:101E7000036811435964002180F83C100846B0BD46
:101E800010B590F83C20012A4FF0020233D080F8C0
:101E90003D200268D2F804E0D2F808C00C682EF0A9
:101EA0007003234340F2FF74C4F20004A242536063
:101EB0000ADCB2F1804F13D040F20043C4F20003B9
:101EC0009A420DD011E000BF42F60043C4F2010374
:101ED0009A4205D040F60003C4F200039A4204D1AE
:101EE00049682CF08003194391600121002280F899
:101EF0003D1080F83C20104610BD0000002804BFB3
:101F00000120704710B5044690F83D0028B9002024
:101F100084F83C00204600F067F8022084F83D0079
:101F2000206840F2FF730268C4F2000342F6004CDE
:101F30009842C4F2010C15DCB0F1804F1AD040F287
:101F40000041C4F20001884214D0984218DCB0F17C
:101F5000804F1DD040F20041C4F20001884217D0EA
:101F60001AE000BF604505D040F60001C4F2000150
:101F70008842EAD1A16822F070020A439842E6DD65
:101F8000604505D040F60001C4F20001884203D14B
:101F9000216922F440720A43A36922F08001D4F837
:101FA00004E0E268194360450160C262C0F828E0BD
:101FB00002D16169CCF8301001214161002084F820
:101FC000461084F83E1084F83F1084F8401084F8DE
:101FD000411084F8421084F8431084F8441084F8C7
:101FE000451084F83D1010BD80B582B0006842F6FF
:101FF0000041C4F2010188421CBF02B080BD41F221
:102000001800C4F202000168002241F4006101607E
:102010000068032100F40060019001981920FFF787
:10202000E7F9192002B0BDE88040FFF7CDB9000004
:1020300090F83D1001291CBF01207047022180F853
:102040003D10006840F2FF72C168C4F20002904285
:1020500041F00101C16009DCB0F1804F12D040F2C3
:102060000041C4F2000188420CD012E042F6004167
:10207000C4F20101884205D040F60001C4F200011B
:10208000884206D1816801F00701062904BF0020BB
:102090007047016841F001010160002070470000B5
:1020A00080B590F83C20012A4FF0020200F0C28077
:1020B00080F83D20D0F800C04FF67772DCF8083089
:1020C00023EA0202CCF808200B684F2B28DC1F2BD8
:1020D00044DD202B45D0302B43D0402B40F0AC804A
:1020E000D1F804E0C968DCF82030DCF8202022F0C8
:1020F0000102CCF82020DCF8182022F0F00242EA9D
:10210000011123F00A0242EA0E02CCF81810CCF8B2
:102110002020DCF8081041F0470121F0300180E078
:102120006F2B27DDB3F5005F48D0B3F5805F7AD021
:10213000702B40F08180D1E901E3C968DCF8082008
:1021400043EA0E0322F47F4243EA01211143CCF813
:102150000810DCF8081041F0770162E00BB1102B99
:102160006AD1DCF8081021F07001194341F0070131
:1021700057E000BF502B35D0602B5DD1D1F804E083
:10218000C968DCF82030DCF8202022F01002CCF8FE
:102190002020DCF8182022F4704242EA013123F0BA
:1021A000A00242EA0E12CCF81810CCF82020DCF87D
:1021B000081041F0670121F0100132E0D1E901E39C
:1021C000C968DCF8082043EA0E0322F47F4243EAA0
:1021D00001211143CCF80810DCF8081041F48041CB
:1021E0001FE000BFD1F804E0C968DCF82030DCF85B
:1021F000202022F00102CCF82020DCF8182022F068
:10220000F00242EA011123F00A0242EA0E02CCF87F
:102210001810CCF82020DCF8081041F0570121F00C
:102220002001CCF808100022012180F83D10002187
:1022300080F83C10104680BD0122F5E77047000091
:1022400010B5016804460869800744BFC8685FEAA2
:10225000807039D40869400744BFC8685FEA40709D
:102260003ED40869000744BFC8685FEA007045D4DF
:102270000869C00644BFC8685FEAC0604AD40869FC
:10228000C0071CBFC8685FEAC07051D1086900066A
:1022900044BFC8685FEA006052D40869400644BF82
:1022A000C8685FEA406053D40869800646BFC868C2
:1022B0005FEA806010BD6FF0200220460A61BDE831
:1022C0001040FFF7B5BD00BF6FF0020008610120AC
:1022D00020778869800743D02046FFF7AFFF45E0AD
:1022E0006FF00400086102202077886910F4407FB5
:1022F00040D02046FFF7A2FF42E000BF6FF0080089
:10230000086104202077C86980073DD02046FFF788
:1023100095FF3FE06FF01000086108202077C86942
:1023200010F4407F3AD02046FFF788FF3CE000BF22
:102330006FF001000861204600F0E6F92168A5E78A
:102340006FF0800008612046FFF770FD2168A4E768
:102350006FF040000861204600F0D8F92168A3E73B
:10236000204600F04FF8204600F0CCF9216800200C
:1023700020776FE7204600F045F8204600F0C2F9CC
:102380002168002020776CE7204600F03BF82046CB
:1023900000F0B8F921680020207769E7204600F0B6
:1023A00031F8204600F0AEF921680020207766E77A
:1023B00080B586B0014640F60000C4F2010009680D
:1023C00000F5105300229942049201D006B080BD5E
:1023D00041F21801C4F202010A6842F004020A60E4
:1023E000096801F00401019101994FF4E061029143
:1023F000022103910321059102A9FEF75BFE06B0BD
:1024000080BD0000704700002DE9F04390F83C309B
:10241000012B04BF0220BDE8F0834FEAB202032A79
:102420003CD8DFE802F0034381BD00BF036842F6F9
:1024300000461D6A1A6AC4F2010622F001021A62FD
:102440001A465C6852F818CFB3428E68D1F800E0A3
:1024500025F0020545EA06050CD1CE68D1E90578DC
:1024600024F4407425F00C0526F004063C43354363
:1024700044EA08042CF0730747EA0E075C609F618A
:102480004F6809695F631D629F6947F008079F6194
:102490009F6927F004079F61B2E000BF012100227D
:1024A00080F83C200846BDE8F08300BF036842F690
:1024B00000461D6A1A6AC4F2010622F010021A626E
:1024C0001A46D3F804C052F8184FB3428E68D1F8B8
:1024D00000E025F0200545EA061510D1CE68D1E9C7
:1024E000058725F0C0096FF0400505EA06152CF4B4
:1024F000406647EA080745EA090546EA870C24F4DE
:10250000E64444EA0E27C3F804C09F614F68096996
:102510009F631D629F6947F400679F619F6927F46D
:1025200080679F616BE000BF036842F600461D6A4A
:102530001A6AC4F2010622F480721A621A46D3F8AB
:1025400004C052F81CEFB3428E680C6825F4007585
:1025500045EA062511D1CE68D1E9058725F4406901
:10256000360240F2FF4526EA05052CF4405647EABC
:10257000080745EA090546EA071C2EF073072743BA
:10258000C3F804C0DF614F680969DF631D62DF695A
:1025900047F00807DF61DF6927F00407DF612FE0FC
:1025A000036842F60047D3F820C01A6AC4F2010754
:1025B00022F480521A621A465C6852F81C5FD1F805
:1025C00000E08E68BB4204D14F6924F4804444EAA1
:1025D00087142CF4005747EA063725F4E64646EA06
:1025E0000E265C60DE614E6809691E641F62DF6949
:1025F00047F40067DF61DF6927F48067DF61090264
:102600001368194311600021002280F83C2008461D
:10261000BDE8F083002804BF0120704710B50446D0
:1026200090F83D0028B9002084F83C00204600F0D6
:1026300067F8022084F83D00206840F2FF730268CA
:10264000C4F2000342F6004C9842C4F2010C15DCBF
:10265000B0F1804F1AD040F20041C4F2000188422C
:1026600014D0984218DCB0F1804F1DD040F20041E8
:10267000C4F20001884217D01AE000BF604505D0BF
:1026800040F60001C4F200018842EAD1A16822F0BC
:1026900070020A439842E6DD604505D040F600012D
:1026A000C4F20001884203D1216922F440720A4336
:1026B000A36922F08001D4F804E0E2681943604580
:1026C0000160C262C0F828E002D16169CCF8301024
:1026D00001214161002084F8461084F83E1084F8FE
:1026E0003F1084F8401084F8411084F8421084F8B8
:1026F000431084F8441084F8451084F83D1010BD50
:1027000070470000704700007047000070470000ED
:102710007047000070470000B0B582B00446006802
:102720000168C368426901F02F05202D03F02005E0
:1027300006D12DB1204602B0BDE8B04000F0BEBBCE
:102740005FEA017C1EBF02F0010E03F4907212EBEF
:102750000E0253D1226B012A05D111F0100218BFCD
:1027600013F0100236D10A0622D513F080021FD0D2
:1027700094F8411021293FD1A168B1F5805F03D1C0
:102780002169002900F07082216A4A1C22620978BE
:102790004160E18C01390A04E1842DD1C16821F046
:1027A0008001C160C16841F04001C16002B0B0BDAC
:1027B000490621D513F040011ED0C16821F0400127
:1027C000C1602021204684F8411002B0BDE8B0402D
:1027D00000F014BB00210191016801914168019151
:1027E00001994069400613D4A08DE18DE28D002A45
:1027F00018BF884240F0BA8102B0B0BDCA0718BF06
:1028000013F4807240F0B6804A0700F1B980BEE050
:10281000E06B016849688AB2002AEDD0A38D9A4224
:10282000EAD2E1858069202800F09C80206850E889
:10283000030F216820F4807041E80302DAB12068B8
:1028400050E8030F216820F4807041E8030292B140
:10285000206850E8030F216820F4807041E80302EB
:102860004AB1206850E8030F216820F4807041E8E5
:102870000302002ADAD1206850E8050F216820F011
:10288000010041E80502DAB1206850E8050F21682F
:1028900020F0010041E8050292B1206850E8050FE0
:1028A000216820F0010041E805024AB1206850E8A3
:1028B000050F216820F0010041E80502002ADAD165
:1028C000206850E8050F216820F0400041E805022B
:1028D000DAB1206850E8050F216820F0400041E897
:1028E000050292B1206850E8050F216820F04000F1
:1028F00041E805024AB1206850E8050F216820F040
:10290000400041E80502002ADAD1202084F8420084
:1029100000202063206850E8030F216820F0100099
:1029200041E80302DAB1206850E8030F216820F083
:10293000100041E8030292B1206850E8030F2168BB
:1029400020F0100041E803024AB1206850E8030F6C
:10295000216820F0100041E80302002ADAD1E06B80
:10296000FEF702FA02206063A08DE18D401A81B269
:10297000204674E1626C42F0010262644A0706D5A7
:10298000BEF1000F03D0626C42F0020262648A075B
:1029900006D5BEF1000F03D0626C42F004026264FF
:1029A000BCF1000F09D545EA0E02B2FA82F25209D3
:1029B00003D1626C42F008026264626C002A3FF448
:1029C0001BAF11F0200118BF002D03D0204600F0EE
:1029D00075FA20684069616C00F0400001F0080160
:1029E000401800F0B58000BF206850E8030F216850
:1029F00020F4907041E80302BAB3206850E8030F56
:102A0000216820F4907041E8030272B3206850E816
:102A1000030F216820F4907041E803022AB3206874
:102A200050E8030F216820F4907041E80302002A67
:102A3000DAD11AE0206850E8050F216820F0010083
:102A400041E80502DAB1206850E8050F216820F05E
:102A5000010041E8050292B1206850E8050F2168A5
:102A600020F0010041E805024AB1206850E8050F56
:102A7000216820F0010041E80502002ADAD1206B2C
:102A8000012824D1206850E8030F216820F01000AD
:102A900041E80302DAB1206850E8030F216820F012
:102AA000100041E8030292B1206850E8030F21684A
:102AB00020F0100041E803024AB1206850E8030FFB
:102AC000216820F0100041E80302002ADAD120201A
:102AD00084F84200002020632068406940063FD50A
:102AE000206850E8050F216820F0400041E8050209
:102AF000DAB1206850E8050F216820F0400041E875
:102B0000050292B1206850E8050F216820F04000CE
:102B100041E805024AB1206850E8050F216820F01D
:102B2000400041E80502002ADAD1E06BC0B142F66C
:102B3000B161C0F600014163FEF73AF900283FF4A5
:102B40005BAEE06B416B02B0BDE8B040084700BF30
:102B50002046FFF7DFFD0020606402B0B0BD00BF7B
:102B6000204602B0BDE8B040FFF7D4BD401A21684E
:102B700051E8031F226821F4907142E80313DBB18E
:102B8000216851E8031F226821F4907142E8031381
:102B900093B1216851E8031F226821F4907142E843
:102BA00003134BB1216851E8031F226821F490718F
:102BB00042E80313002BDAD1216851E8051F22688F
:102BC00021F0010142E80513DBB1216851E8051F3E
:102BD000226821F0010142E8051393B1216851E810
:102BE000051F226821F0010142E805134BB121685D
:102BF00051E8051F226821F0010142E80513002B6E
:102C0000DAD1202184F8421000212163216851E8A3
:102C1000031F226821F0100142E80313DBB1216891
:102C200051E8031F226821F0100142E8031393B119
:102C3000216851E8031F226821F0100142E80313C4
:102C40004BB1216851E8031F226821F0100142E8CE
:102C50000313002BDAD1022281B22046626302B054
:102C6000BDE8B040FFF754BD216A31F8022B6FF385
:102C70005F22426021628CE5002804BF012070477A
:102C800010B5044690F8410028B9002084F84000AF
:102C9000204600F063F8242084F841002068D4E93D
:102CA0000212C36823F40053C360036923F4405342
:102CB0001A430261D4E904231143C268194341F263
:102CC0000C639A431143C1604169A26921F44071C8
:102CD000114343F60002C4F201029042416103D065
:102CE000FEF728FD02E000BFFEF738FD62681921FB
:102CF00048439100B0FBF1F048F21F51C5F2EB11CF
:102D0000A0FB01235A094FF69C73C0F6FF7302FB28
:102D10000300322303EB0010A0FB0101F02303EAC0
:102D20005113206803EB0212C1F343111144816077
:102D3000016921F490410161416921F02A01416159
:102D4000C16841F40051C16000202021606484F812
:102D5000411084F84210606310BD000070B586B069
:102D600040F60044C4F20104006804F53051002626
:102D70008842049602D006B070BD00BF41F2180030
:102D8000C4F20200016802AD41F4804101600168B3
:102D900001F4804101910199016841F0080101604D
:102DA0000068294600F00800019001984020029038
:102DB00002200390032005902046FEF77BF9802037
:102DC000CDE902060120049020462946FEF772F95B
:102DD0000420C4F201000168002241F0E06141F0EA
:102DE0000401016025200221FEF702FB2520FEF7E9
:102DF000EBFA06B070BD000070470000704700009D
:102E0000FEE70000FEE70000FEE70000704700005C
:102E100040F26410C2F20000FEF790BE406A00214A
:102E2000C187C186FEF788BE7047000080B5FEF7F7
:102E300063FAFEF75BFA47F6D501C2F2E96148434F
:102E400041F26E214FEAB000C0F28301884288BF90
:102E500080BD41F20000C4F201004FF40051BDE812
:102E60008040FEF735BA00007047000080B540F2A0
:102E7000A420C2F20000016840F278020131016032
:102E800040F2C80040F2940140F2A823C2F20000D0
:102E9000C2F20001C2F20002C2F20003FDF7C0FB61
:102EA00040F21420C2F20000BDE88040FFF7C8B92C
:102EB000406A0021C185C184FFF72CBC81B090F825
:102EC0004210222921D183680246B3F5805F09D1DF
:102ED00052F8281F52F8183C002B63D003685B6837
:102EE0000AE000BF52F8281F13B90369002BF5D080
:102EF00003685B6803F07F030B7011680131116098
:102F0000C18D01390A04C18502D001B0704700BFEC
:102F10000168CA6822F02002CA60CA6822F480727E
:102F2000CA604A6922F001024A61202180F84210F9
:102F300000214163026B012A3CD10163016851E821
:102F4000031F026821F0100142E80313DBB101689E
:102F500051E8031F026821F0100142E8031393B106
:102F6000016851E8031F026821F0100142E80313D1
:102F70004BB1016851E8031F026821F0100142E8DB
:102F80000313002BDAD101680A68D20606D50022A5
:102F900000920A680092496800910099818D01B001
:102FA000FFF7B6BB026852686FF35F2221F8022B6D
:102FB0008162A5E701B0FFF71FBF000040F25C206F
:102FC000C2F20000FFF7A8BB40F2C800C2F2000046
:102FD000FDF78CBCFEE7000098B0FEF79BF90024DB
:102FE0000120CDE90644CDE90444019005904FF459
:102FF000E0104FF4803102250A9001A81794CDE922
:103000001544CDE90214CDE90851FEF7BBFB28B108
:10301000EFF3108072B600BFFEE700BF0F20CDE9CE
:103020000B054FF48060CDE90E040BA802210D942E
:10303000FEF7A0FA20B1EFF3108072B6FEE700BFF2
:103040004FF400404FF0020B169014A8CDF850B08A
:10305000FEF70AFA20B1EFF3108072B6FEE700BF68
:1030600041F21805C4F20205286841F2000840F058
:10307000100028602868C4F2010800F010000190D8
:103080000198286840F60C0640F020002860286867
:1030900040F6000A00F020000190019828684FF4E3
:1030A000005140F0040028602868012200F004006C
:1030B000019001982868C4F2010640F008002860D9
:1030C0002868C4F2010A00F0080001900198404607
:1030D0004FF400570124FEF703F9504648F201016E
:1030E0000122FEF7FDF806F57D7630464FF440618B
:1030F0000022FEF7F5F8CDE9017401AF4FF00309A6
:10310000404639460394CDF81090FDF7D3FF4FF4B5
:103110004040CDE9010940463946FDF7CBFF48F272
:103120000100CDE9010450463946CDE90349FDF7D8
:10313000C1FFF020CDE9010950463946FDF7BAFF3D
:1031400040F20730CDE9010930463946FDF7B2FFBC
:103150004FF4406001A981E8110830463946CDF8A6
:1031600010900027FDF7A6FF40F2C806C2F2000645
:1031700008F5A051304640F8281F4FF480714FF4F5
:10318000602207730775C261C0E90171C0F8109031
:10319000FDF72EF920B1EFF3108072B6FEE700BF05
:1031A000039706F1280740F60C0901A93846C4F236
:1031B0000109CDE90144FDF755F828B1EFF310807E
:1031C00072B600BFFEE700BF0220CDE9010001A9F1
:1031D0003846FDF747F828B1EFF3108072B600BF0C
:1031E000FEE700BF0320CDE9010001A93846FDF745
:1031F00039F828B1EFF3108072B600BFFEE700BFC8
:10320000AAF52440092100244FF4803286E81300F7
:103210003046C6E90342C6E90544B483FDF796FC8F
:1032200020B1EFF3108072B6FEE700BF01200990D5
:10323000CDE90740142003210A9040F2C8000A2675
:10324000CDE90214C2F2000001A9CDE905460194BE
:103250000494FDF739FA28B1EFF3108072B600BF7D
:10326000FEE700BF40F2641008F50051C2F2000012
:1032700000244FF4007310274FF4827280E8160088
:10328000C0E90344C0E90543C0E90774C0E9094443
:10329000C662FEF7D7FC28B1EFF3108072B600BF0C
:1032A000FEE700BF40F2142008F5E051C2F2000032
:1032B0002022C0E9001400F108011794CDE915445B
:1032C000CDE91244CDE90744CDE90544CDE90344F5
:1032D000CDE90144464640F2077307279CC184614B
:1032E000FEF70CFE20B1EFF3108072B6FEE700BFD0
:1032F0004FF48050149040F21420C2F2000014A940
:10330000FEF7CEFE20B1EFF3108072B6FEE700BFED
:1033100040F21420C2F20000FFF77CF920B1EFF375
:10332000108072B6FEE700BF40F21420C2F2000027
:1033300012A9FEF7A5FD18B1EFF3108072B6FEE7F3
:1033400060200B90002002210C90CDE90D10CDE9FA
:103350000F00119040F21420C2F200000BA90022CD
:10336000FFF752F820B1EFF3108072B6FEE700BF0E
:1033700040F21420C2F200000BA90422FFF744F827
:1033800020B1EFF3108072B6FEE700BF40F21420C8
:10339000C2F200000BA90822FFF736F820B1EFF3C4
:1033A000108072B6FEE700BF4FF40050069040F266
:1033B00014200024C2F2000001A90594CDE90344C1
:1033C000CDE901440894FEF735FD18B1EFF3108004
:1033D00072B6FEE740F21427C2F200073846FEF745
:1033E000E7FF55F8040C002140F0010045F8040CFB
:1033F00055F8040C002200F00100019001980B2008
:10340000FDF7F6FF0B20FDF7DFFF40F25C2006F52D
:103410002051C2F200000C234FF4E13280E8160084
:10342000C0E90344C0E90534C461FFF725FC18B1C5
:10343000EFF3108072B6FEE740F2BC10AAF55041DF
:10344000C2F200000025C0E900150A21C0E90255BA
:10345000C0E904558561C0E90855C0E90A51FEF785
:10346000F1FB18B1EFF3108072B6FEE750464FF44F
:10347000004101224FF00108FDF732FF50460121C3
:103480000122FDF72DFF40F2C804C2F200042046DD
:10349000FDF72EFC20460221FDF7AAF840F2700449
:1034A000C2F200040820606342F211204FF6FB4193
:1034B000CFF63320CFF6FE713A68C4E90B55C4F855
:1034C0002480C4E90201C4E904012576536AC4F8E2
:1034D0001A006376C4F81E1084F82250506A84F8EB
:1034E00023003846FEF7A4FD3868416A6176406AD9
:1034F00084F82300D9F8000020F40040C9F8000047
:10350000D9F8000040F40040C9F80000D9F80000E4
:1035100020F00100C9F80000D9F8000040F00100D7
:10352000C9F800000120FDF7B1FDDDE70000000053
:103530000000000001020304060708090000000063
:1035400001020304010202030405060708090A0B2D
:103550000C0D0E0F10100000783500080000002040
:103560001000000028010008883500081000002025
:10357000A008000044010008010000001000000045
:083580000024F400000000002B
:04000005080000ED02
:00000001FF
